:020000040000FA
:10000000ECEF1BF0C96E12002DEF13F017EC1AF095
:1000100062EC14F0FDD71200F4EF16F0D9CFE5FF33
:10002000E1CFD9FF00C0E5FF01C0E5FF02C0E5FF59
:1000300003C0E5FF04C0E5FF05C0E5FF06C0E5FF1E
:1000400007C0E5FF08C0E5FF09C0E5FF0AC0E5FFFE
:100050000BC0E5FF0CC0E5FF0DC0E5FF0EC0E5FFDE
:100060000FC0E5FF10C0E5FF11C0E5FF12C0E5FFBE
:1000700013C0E5FF14C0E5FF15C0E5FF16C0E5FF9E
:1000800017C0E5FF18C0E5FF19C0E5FF1AC0E5FF7E
:100090001BC0E5FF1CC0E5FF1DC0E5FF1EC0E5FF5E
:1000A000020EDBCF00F0030EDBCF01F0040EDBCF3E
:1000B00002F0050EDBCF03F0060EDBCF04F0070ED7
:1000C000DBCF05F0080EDBCF06F0090EDBCF07F023
:1000D0000A0EDBCF08F0096A0A6A02C00DF00D5063
:1000E000800A0DE102500F012F6F01502E6F00505A
:1000F0002D6F0F0E016E2D0E006E800E026E03C06E
:10010000E9FF04C0F3FF055049EC1CF00B6E0B50E7
:10011000D8B4C4EF03F00B50250A02E0ABEF03F0B4
:100120000C6A0D6A0E6A0F6A106A0A0E116E126A64
:10013000136A146A200E156E1668176A2B0E186E55
:10014000032A02E3044A052A03C0E9FF04C0F3FFBF
:10015000055049EC1CF0196E250A13E11950E56EA3
:100160000250E56E0150E56E0050E56E53EC0FF065
:10017000040EE126094A0A2A032A02E3044A052A50
:10018000BED71950300A06E1300E156E032A02E37D
:10019000044A052A03C0E9FF04C0F3FF055049ECF7
:1001A0001CF02D0A06E1010E146E032A02E3044A34
:1001B000052A03C0E9FF04C0F3FF055049EC1CF019
:1001C000200A08E1010E176E200E186E032A02E3C2
:1001D000044A052A03C0E9FF04C0F3FF055049ECB7
:1001E0001CF02B0A06E1010E176E032A02E3044AF3
:1001F000052A03C0E9FF04C0F3FF055049EC1CF0D9
:10020000196E310E195C2BE33A0E195C28E203C01B
:1002100019F004C01AF005C01BF019C0E9FF1AC09C
:10022000F3FF1B5049EC1CF01C6E300E1C5C11E3FC
:100230003A0E1C5C0EE213500A0DF3CF1DF01C5059
:100240001D26D00E1D24136E192A02E31A4A1B2AFA
:10025000E4D719C003F01AC004F01BC005F003C0B6
:10026000E9FF04C0F3FF055049EC1CF02E0A2DE114
:10027000032A02E3044A052A166A03C019F004C0DF
:100280001AF005C01BF019C0E9FF1AC0F3FF1B509C
:1002900049EC1CF01C6E300E1C5C11E33A0E1C5C29
:1002A0000EE216500A0DF3CF1DF01C501D26D00E85
:1002B0001D24166E192A02E31A4A1B2AE4D719C014
:1002C00003F01AC004F01BC005F003C0E9FF04C02E
:1002D000F3FF055049EC1CF0196E6C0A07E1010EA2
:1002E0000C6E032A02E3044A052A09D01950680A51
:1002F00006E1010E0E6E032A02E3044A052A03C03A
:10030000E9FF04C0F3FF055049EC1CF0750A06E153
:10031000010E106E032A02E3044A052A03C0E9FF16
:1003200004C0F3FF055049EC1CF0196E730A05E197
:10033000010E0D6E200E156E3FD01950780A03E1A4
:10034000100E116E39D01950580A05E1100E116EB9
:10035000010E126E31D01950630A02E1116A2CD0DD
:1003600019506F0A03E1080E116E26D01950660A63
:1003700003E1010E0F6E20D01950640A1DE01950E0
:10038000690A1AE0105005E0FF0E03260422052238
:1003900013D01950E56E0250E56E0150E56E005025
:1003A000E56E53EC0FF0040EE126094A0A2A032AEF
:1003B00002E3044A052AA3D60D5021E00650030F9C
:1003C0000D6E000E0720196E000E08201A6E0DC06B
:1003D00006F019C007F01AC008F0FD0E0D26FF0E3A
:1003E00019221A220DC0E9FF19C0F3FF1A5001ECBF
:1003F0001BF00D6EF3CF19F0F4CF1AF0FDD00F50B3
:100400000DE0000E1A6E080E196E100E0D6E040E21
:100410000626000E072208221668EED016680C5039
:1004200023E00650040F0C6E000E07200F6E000E26
:1004300008201B6E0CC006F00FC007F01BC008F0B0
:10044000FC0E0C26FF0E0F221B220CC0E9FF0FC072
:10045000F3FF1B5087EC1AF00C6EF3CF0FF0F4CFC4
:100460001BF0E9CF1CF067D00E502FE00650020FB2
:100470000E6E000E07201D6E000E08201E6E0EC0B0
:1004800006F01DC007F01EC008F0FE0E0E26FF0E7F
:100490001D221E220EC0E9FF1DC0F3FF1E50C0EC3E
:1004A0001BF00E6E0EC00CF00F6A1B6A1C6A115016
:1004B0000A0A03E11050D8B43ED00C500E6E0EC0A4
:1004C0000CF00F6A1B6A1C6A36D00650020F0E6EC3
:1004D000000E07201D6E000E08201E6E0EC006F0D6
:1004E0001DC007F01EC008F0FE0E0E26FF0E1D22D6
:1004F0001E220EC0E9FF1DC0F3FF1E50C0EC1BF012
:100500000E6EF3CF1DF00EC00CF01DC00FF0E86AA8
:100510001DBEFF0E1B6E1C6E11500A0A02E1105028
:100520000AE00C500E6E0F501D6E0EC00CF01DC078
:100530000FF01B6A1C6A040E196E240E0D6E800EDD
:100540001A6E1150D8B440D0105013E01150E56E1F
:10055000040EE56E240EE56E1C50E56E1B50E56E34
:100560000F50E56E0C50E56EB1EC0AF0070EE12677
:1005700012D01150E56E040EE56E240EE56E1C508F
:10058000E56E1B50E56E0F50E56E0C50E56EFFEC0E
:1005900013F0070EE12617502FE00DC0E9FF19C038
:1005A000F3FF1A5049EC1CF02D0A26E0FF0E0D2631
:1005B00019221A2218C0E5FF0DC0E9FF19C0F3FF88
:1005C0001A50C4EC1CF018D00CC0E5FF0DC0E9FFB8
:1005D00019C0F3FF1A50C4EC1CF00D50010F0C6E43
:1005E000000E19200E6E000E1A20E56A0CC0E9FFFD
:1005F0000EC0F3FFC4EC1CF00DC00CF019C00EF0DF
:100600001AC00FF013C010F0105010E00CC0E9FF3A
:100610000EC0F3FF0F5049EC1CF0176E175006E0A8
:100620000C2A02E30E4A0F2A1006EED710C013F070
:1006300014501EE109C00CF00AC00EF010C00FF0FB
:100640000F5010E01550E56E0250E56E0150E56E5A
:100650000050E56E53EC0FF0040EE1260C4A0E2A12
:100660000F06EED70CC009F00EC00AF00FC013F051
:1006700016C00CF00DC00DF019C00EF01AC00FF02E
:1006800009C010F00AC015F00DC0E9FF0EC0F3FF5D
:100690000F5049EC1CF0166E1650D8B43ED00CC06A
:1006A00016F0176A161E171E1650171005E00CC01C
:1006B00016F00C06165031E00DC0E9FF0EC0F3FF36
:1006C0000F5049EC1CF0116E125010E01150E56E05
:1006D0007DEC1BF0166EE652165004E0DF0E11148E
:1006E000166E02D011C016F016C011F01150E56E52
:1006F0000250E56E0150E56E0050E56E53EC0FF0D0
:10070000040EE1260D2A02E30E4A0F2A104A152A8A
:100710001350D8B4B9D71306B7D710C009F015C015
:100720000AF014502BE010C00CF015C00DF013C0EF
:100730000EF00E501FE0200EE56E0250E56E0150E7
:10074000E56E0050E56E53EC0FF0040EE1260C4A06
:100750000D2A0E06EED70B50E56E0250E56E0150E5
:10076000E56E0050E56E53EC0FF0040EE126094AE9
:100770000A2A04D00CC009F00DC00AF0032A02E3D3
:10078000044A052A7FEF00F00AC0F3FF0950E4CFC6
:100790001EF0E4CF1DF0E4CF1CF0E4CF1BF0E4CF5B
:1007A0001AF0E4CF19F0E4CF18F0E4CF17F0E4CF5B
:1007B00016F0E4CF15F0E4CF14F0E4CF13F0E4CF5B
:1007C00012F0E4CF11F0E4CF10F0E4CF0FF0E4CF5B
:1007D0000EF0E4CF0DF0E4CF0CF0E4CF0BF0E4CF5B
:1007E0000AF0E4CF09F0E4CF08F0E4CF07F0E4CF5B
:1007F00006F0E4CF05F0E4CF04F0E4CF03F0E4CF5B
:1008000002F0E4CF01F0E4CF00F0E4CFD9FF120012
:100810003C4E4F20464C4F41543E000000C0E5FF87
:1008200001C0E5FF02C0E5FF03C0E5FF04C0E5FF2E
:1008300005C0E5FF06C0E5FF07C0E5FF08C0E5FF0E
:1008400009C0E5FF0AC0E5FF0BC0E5FF0CC0E5FFEE
:10085000010E006E016A73EC19F0026A960E025CDA
:10086000D8B0A5D10501E351025C1FE302C003F03B
:10087000046AF70E0326D8A0040640C405F0066AF1
:1008800005500326065004220450800F800F02E119
:100890008D0E035C05E3730E0326D8A00406F4D77F
:1008A000090E0326D8B0042A03D002C003F0046A5C
:1008B000C7EC19F0F3CF06F0F4CF07F0E9CF08F05A
:1008C0000650056E0750066E0536063605360636A6
:1008D0000534030B0618061A0618056E0850E8447E
:1008E000E844FC0B06120844E844030BE8B2FC0998
:1008F000076E086A07BE0868FEC009F0FFC00AF06C
:10090000E86A0001FFBFFF0E0B6E0C6E0850800FEF
:10091000F36E0C50800FF35C08E10B50075C05E1AF
:100920000A50065C02E10950055C36E200C005F0A1
:1009300001C006F00050010F076E000E0120086E86
:10094000E5680650E56E0550E56E5FEC16F0030EA7
:10095000E12607C005F008C006F0074A082AE56846
:100960000650E56E0550E56E5FEC16F0030EE126CD
:1009700007C005F008C006F00750010F006E000E1A
:100980000820016EE5680650E56E0550E56E5FECE7
:1009900016F0030EE12605D10450800F800F02E10E
:1009A0004B0E035CD8B07DD000C005F001C006F04E
:1009B0000050010F076E000E0120086E0450E56E16
:1009C0000350E56EE56A020EE56E73EC15F0096EF4
:1009D000F3CF0AF0040EE126000E09240B6E0B0E75
:1009E0000A200BC0E9FFEA6EEECF0BF0EFCF0CF060
:1009F0000C340C320B320C340C320B320B50E56ED3
:100A00000650E56E0550E56E5FEC16F0030EE1262C
:100A100007C005F008C006F0074A082A000E09249E
:100A20000B6E0C0E0A200BC0E9FFEA6EEECF0BF046
:100A3000EFCF0CF00C340C320B320C340C320B3286
:100A40000B50E56E0650E56E0550E56E5FEC16F056
:100A5000030EE12607C005F008C006F00750010F9D
:100A6000006E000E0820016E000E09260D0E0A22EF
:100A700009C0E9FF0AC0EAFFEECF09F0EFCF0AF0A4
:100A80000A340A3209320A340A3209320950E56E50
:100A90000650E56E0550E56E5FEC16F0030EE1269C
:100AA00080D0B50E0326D8A0040600C005F001C012
:100AB00006F00050010F076E000E0120086E045072
:100AC000E56E0350E56EE56A020EE56E73EC15F017
:100AD000036EF3CF04F0040EE126600E0324096ECA
:100AE000000E042009C0E9FFEA6EEECF09F0EFCF57
:100AF0000AF00A340A3209320A340A320932095039
:100B0000E56E0650E56E0550E56E5FEC16F0030EDF
:100B1000E12607C005F008C006F0074A082A000EC3
:100B20000324096E070E042009C0E9FFEA6EEECF28
:100B300009F0EFCF0AF00A340A3209320A340A32D5
:100B400009320950E56E0650E56E0550E56E5FEC22
:100B500016F0030EE12607C005F008C006F00750A6
:100B6000010F006E000E0820016E000E0326090E14
:100B7000042203C0E9FF04C0EAFFEECF03F0EFCF89
:100B800004F00434043203320434043203320350D8
:100B9000E56E0650E56E0550E56E5FEC16F0030E4F
:100BA000E126022AC6EC0EF08DEC0BF057D6E4CF0E
:100BB0000CF0E4CF0BF0E4CF0AF0E4CF09F0E4CF7F
:100BC00008F0E4CF07F0E4CF06F0E4CF05F0E4CF7F
:100BD00004F0E4CF03F0E4CF02F0E4CF01F0E4CF7F
:100BE00000F0120000C0E5FF01C0E5FF02C0E5FF14
:100BF00003C0E5FF04C0E5FF05C0E5FF06C0E5FF53
:100C000007C0E5FF08C0E5FF040E006E00C001F05C
:100C100000060150D8B45AD14B0E04013F5DD8B044
:100C2000A6D03F51020DF450026EF3CF01F0000E3A
:100C300001260B0E022201C0E9FF02C0EAFFEECF3F
:100C400003F0EFCF04F004340430066E0330056E79
:100C50000634063205320550035E0650045A000E73
:100C60003F25056E066A060E062205C0E9FF06C08E
:100C7000EAFFEFCF05F0066A05500326065004226E
:100C800001C0E9FF02C0EAFF03C0EEFF04C0EFFFAE
:100C90003F51020DF450026EF3CF01F0000E012619
:100CA0000C0E022201C0E9FF02C0EAFFEECF03F002
:100CB000EFCF04F004340430066E0330056E0634C2
:100CC000063205320550035E0650045A000E3F25D9
:100CD000056E066A080E062205C0E9FF06C0EAFF97
:100CE000EFCF05F0066A055003260650042201C026
:100CF000E9FF02C0EAFF03C0EEFF04C0EFFF3F516F
:100D0000020DF450026EF3CF01F0000E01260D0E1D
:100D1000022201C0E9FF02C0EAFFEECF03F0EFCFED
:100D200004F004340430066E0330056E06340632D7
:100D300005320550035E0650045A000E3F25056E2D
:100D4000066A0A0E062205C0E9FF06C0EAFFEFCFD9
:100D500005F0066A055003260650042201C0E9FF8B
:100D600002C0EAFF03C0EEFF04C0EFFFA6D00401FB
:100D70003F51016EB50E01260150020DF450036E75
:100D8000F3CF02F0600E0226000E032202C0E9FF3C
:100D900003C0EAFFEECF04F0EFCF05F005340530D5
:100DA000076E0430066E0734073206320650045EC2
:100DB0000750055A000E3F25066E076A060E0722E9
:100DC00006C0E9FF07C0EAFFEFCF06F0076A06504A
:100DD00004260750052202C0E9FF03C0EAFF04C051
:100DE000EEFF05C0EFFF0150020DF450026EF3CF8D
:100DF00001F0000E0124036E070E0220046E03C0F2
:100E0000E9FF04C0EAFFEECF05F0EFCF06F00634AD
:100E10000630086E0530076E083408320732075076
:100E2000055E0850065A000E3F25076E086A080E38
:100E3000082207C0E9FF08C0EAFFEFCF07F0086A01
:100E4000075005260850062203C0E9FF04C0EAFF48
:100E500005C0EEFF06C0EFFF000E0126090E0222BC
:100E600001C0E9FF02C0EAFFEECF03F0EFCF04F0CC
:100E700004340430066E0330056E06340632053243
:100E80000550035E0650045A000E3F25056E066AA3
:100E90000A0E062205C0E9FF06C0EAFFEFCF05F003
:100EA000066A055003260650042201C0E9FF02C06D
:100EB000EAFF03C0EEFF04C0EFFF04013F2B3F51E8
:100EC000960A01E0A3D604013F6BA0D6E4CF08F058
:100ED000E4CF07F0E4CF06F0E4CF05F0E4CF04F070
:100EE000E4CF03F0E4CF02F0E4CF01F0E4CF00F070
:100EF000120000C0E5FF01C0E5FF02C0E5FF03C02E
:100F0000E5FF0501F551D8B40CD19DA81DD09EA8D0
:100F10001BD004014A510401481905E185EC1CF07D
:100F20000401486BFED0000E04014A25006E016AE0
:100F3000040E012200C0E9FF01C0EAFFEFCF44F434
:100F40004A2B44C4ADFFEDD09DAAEBD09EAAE9D0B8
:100F5000ABA205D00401498185EC1CF0E2D0ABA422
:100F600005D00401498385EC1CF0DBD0ABA048D050
:100F7000AECF44F4F6C500F0016A008E44C402F01E
:100F8000036A0250001803E10350011801E004D085
:100F900004014989AB96C5D00401445104E0445191
:100FA0000501F61929E104014999AB960401445160
:100FB00003E00401499702D00401498744C44DF479
:100FC00046C44EF404014651006E000404014F6F04
:100FD000000E04014E25006E016A0E0E012200C0B3
:100FE000E9FF01C0EAFF44C4EFFF4E2B4E51800AD7
:100FF00002E104014E6B95D004014999AB8691D072
:10100000AECF44F4040149A921D0F6C500F0016A2D
:10101000008E44C402F0036A0250001803E103503A
:10102000011801E011D09D9AAB98949004014851A9
:1010300004E1AD6A85EC1CF007D000C4ADFF010EE1
:1010400004014A6F9D886DD0AB866BD0040144517A
:1010500004014D2704014E5104014F191BE1040105
:101060004D510CE14EC446F4040149B712D09D9A8B
:10107000AB989490AD6A85EC1CF00BD004014985C7
:1010800049B707D09D9AAB989490010EAD6E85EC50
:101090001CF047D004014E510401471908E1040136
:1010A00047510401461903E085EC1CF03AD046C4D0
:1010B00000F0016A004A012AE56A800EE56E0150DF
:1010C000E56E0050E56EE5EC11F0006E040EE126D1
:1010D00000500401456F04014E190FE144C400F0B3
:1010E0001F0E001404014F6F006E020E00244F6F9C
:1010F0000401465104014F274F9F4EC400F00401E4
:101100004E2B016A000E00260E0E012200C0E9FFE0
:1011100001C0EAFF44C4EFFF4E51800A02E104011E
:101120004E6BE4CF03F0E4CF02F0E4CF01F0E4CF64
:1011300000F0120000C0E5FF01C0E5FF02C0E5FFBE
:1011400003C0E5FF04C0E5FF05C0E5FF9DEC19F015
:10115000006E1E0E005CD8A0EDD0230E005CD8B04F
:10116000E9D0E20E0026FA6AFB6A0034FA36E83467
:10117000FA36FC0B840FE56E110EFA22000EFB22EC
:10118000E450F96ECCEF08F0E2EF08F02AEF09F036
:1011900032EF09F040EF09F09DEC19F0006A016EA2
:1011A0009DEC19F0036A0026035001229DEC19F012
:1011B000E56E0150E56E0050E56E5FEC16F0030E33
:1011C000E126B8D09DEC19F0006A016E9DEC19F093
:1011D000036A00260350012205EC1DF0026EFD0E8D
:1011E0000226030E025CD8A0A5D0000E0024036ED8
:1011F000060E0120046E9DEC19F0056E03C0E9FF98
:1012000004C0EAFF05C0EFFF000E0024036E080EC5
:101210000120046E9DEC19F0056E03C0E9FF04C0C7
:10122000EAFF05C0EFFF000E0024036E0A0E012046
:10123000046E9DEC19F0056E03C0E9FF04C0EAFFDF
:1012400005C0EFFF004A012A0250036EFD0E032481
:10125000026EC7D79DEC19F09DEC19F00124040132
:10126000406F68D09DEC19F0006A016E9DEC19F09A
:10127000036A00240001FE6F03500120FF6F5AD063
:101280009DEC19F0006A016E9DEC19F0036A0026CE
:101290000350012200500501E46F0150E56F9DEC01
:1012A00019F0006A016E9DEC19F0036A00260350E4
:1012B000012200500501E66F0150E76F9DEC19F027
:1012C000006A016E9DEC19F0036A002603500122AA
:1012D00000500501E86F0150E96F9DEC19F0006ABC
:1012E000016E9DEC19F0036A0026035001220050A4
:1012F0000501EA6F0150EB6F9DEC19F0006A016E79
:101300009DEC19F0036A00260350012200500501EC
:10131000EC6F0150ED6F9DEC19F0006A016E9DECD1
:1013200019F0036A00260350012200500501EE6FF8
:101330000150EF6FE4CF05F0E4CF04F0E4CF03F009
:10134000E4CF02F0E4CF01F0E4CF00F01200D9CFF7
:10135000E5FFE1CFD9FF00C0E5FF01C0E5FF02C016
:10136000E5FF03C0E5FF04C0E5FF05C0E5FF06C0DB
:10137000E5FF07C0E5FF020EDBCF00F0030EDBCF79
:1013800001F0040EDBCF02F0050EDBCF03F0060EFA
:10139000DBCF04F0070EDBCF05F0080EDBCF06F045
:1013A000090EDBCF07F0005004018A6F01508B6FEC
:1013B00002508C6F03508D6F045004018E6F0550E6
:1013C0008F6F0650906F0750916F04018A5104018E
:1013D0009003F4CF01F0F3CF00F000500001F86F5C
:1013E0000150F96F04018A5104018E03F4CF01F01A
:1013F000F3CF00F000500001F66F0150F76F0401C9
:101400008D5104018E03F3CF00F00001F951002645
:101410000050F96F04018C5104018F03F3CF01F0E8
:101420000150002600500001F96F04018C510401A5
:101430008E03F4CF01F0F3CF00F00001F851002645
:10144000F95101220050F86F0150F96F04018B51DE
:1014500004018F03F4CF03F0F3CF02F00250002613
:101460000350012200500001F86F0150F96F040190
:101470008B5104019003F3CF00F000500001FD6F89
:1014800004018B5104018E03F4CF01F0F3CF00F07F
:1014900000500001FB6F0150FC6F04018A510401F0
:1014A0009103F3CF00F000500F01266F04018A5121
:1014B00004018F03F4CF01F0F3CF00F000500F01CF
:1014C000246F0150256F0001FA6B0F01236B00019F
:1014D000FA510001F625006E0001FB510001F721D1
:1014E000016E0001FC510001F821026E0001FD5166
:1014F0000001F921036E0050F66F0150F76F0250A2
:10150000F86F0350F96F0F0123510001F625006EAB
:101510000F0124510001F721016E0F012551000137
:10152000F821026E0F0126510001F921036E03C05C
:10153000E9FF02C0F4FF01C0F3FF0050E4CF07F061
:10154000E4CF06F0E4CF05F0E4CF04F0E4CF03F0FD
:10155000E4CF02F0E4CF01F0E4CF00F0E4CFD9FF14
:101560001200D9CFE5FFE1CFD9FF00C0E5FF01C0F0
:10157000E5FF02C0E5FF03C0E5FF04C0E5FF05C0CD
:10158000E5FF06C0E5FF07C0E5FF08C0E5FF09C0AD
:10159000E5FF0AC0E5FF0BC0E5FF0CC0E5FF0DC08D
:1015A000E5FF0EC0E5FF0FC0E5FF020EDBCF00F048
:1015B000030EDBCF01F0040EDBCF02F0050EDBCF14
:1015C00003F0060EDBCF04F0070EDBCF05F0080EAC
:1015D000DBCF06F0200E076E086A06C009F00A6A23
:1015E0000B6A0C6AE56AE56AE56A0950E56E035024
:1015F000E56E0250E56E0150E56E0050E56E0CECB4
:101600000DF00D6E080EE126300E0D263A0E0D5C23
:1016100005E30D500E6E270E0E240D6EFF0E0726ED
:101620000822C30E07240E6E050E08200F6E0EC092
:10163000E9FF0FC0EAFF0DC0EFFF0C50E56E0B5045
:10164000E56E0A50E56E0950E56E0350E56E0250F6
:10165000E56E0150E56E0050E56EA9EC0DF0006EF0
:10166000F3CF01F0F4CF02F0E9CF03F0080EE1264A
:101670000050011002100310D8A4AFD707C000F02B
:1016800008C001F004C002F005C003F000C004F07F
:1016900001C005F0004A012AC30E0426050E0522EA
:1016A00004C0E9FF05C0EAFFEFCF04F002C0E9FF84
:1016B00003C0EAFF04C0EFFF024A032A000E015CE8
:1016C00002E1200E005CE2E302C0E9FF03C0EAFF92
:1016D000000EEF6AE4CF0FF0E4CF0EF0E4CF0DF090
:1016E000E4CF0CF0E4CF0BF0E4CF0AF0E4CF09F044
:1016F000E4CF08F0E4CF07F0E4CF06F0E4CF05F044
:10170000E4CF04F0E4CF03F0E4CF02F0E4CF01F043
:10171000E4CF00F0E4CFD9FF120000C0E5FF01C024
:10172000E5FF02C0E5FF03C0E5FF04C0E5FF05C01B
:10173000E5FF06C0E5FF07C0E5FF72A2A8D0A4A898
:10174000A6D00501F851FD0A03E1F951FF0A01E0B5
:1017500009D0F3EC1CF0736AFE0E0501F86FFF0E62
:10176000F96995D00501F851FE0A03E1F951FF0A24
:1017700001E00DD073EC19F0F3CF01F00F01346FDD
:101780000150356FFF0E0501F869F96980D0050138
:10179000F851FF0A03E1F951FF0A01E02DD073EC83
:1017A00019F0006EF3CF01F0F4CF02F0E9CF03F0AF
:1017B00034CF04F035CF05F0E86A0F0135BFFF0ED6
:1017C000066E076E0450005E0550015A0650025A1C
:1017D0000750035A039E000E035C08E1000E025CF2
:1017E00005E1000E015C02E1090E005CD8A04FD0BB
:1017F0000501F86BF96B4BD00501F851F91108E1BF
:10180000F7EC1CF0736A010E0501F86FF96B3FD01D
:101810000501F951800F7F0F02E1000EF85D14E31E
:10182000F8C500F0F9C501F00501F83F01D0F92B2A
:101830000106000E0026050E012200C0E9FF01C0CE
:10184000EAFFEFCF73FF12D0F8C500F0F9C501F041
:101850000501F83F01D0F92B000E0026020E0122EF
:1018600000C0E9FF01C0EAFFEFCF73FF0501F851A7
:10187000C30A03E1F951010A01E009D0FD0E050197
:10188000F86FFF0EF9690F01363F01D0372BE4CF17
:1018900007F0E4CF06F0E4CF05F0E4CF04F0E4CFA6
:1018A00003F0E4CF02F0E4CF01F0E4CF00F0120047
:1018B000D9CFE5FFE1CFD9FF00C0E5FF01C0E5FFCB
:1018C00002C0E5FF03C0E5FF04C0E5FF05C0E5FF7A
:1018D000020EDBCF00F0030EDBCF01F0E3C502F018
:1018E000036A0250005C026E03500158036E0250FE
:1018F000810F006E000E0320016E0150800F800FDB
:1019000002E18D0E005C05E3730E0026D8A00106EF
:10191000F4D700C002F001C003F00150E56E0050A2
:10192000E56EE56A0B0EE56E73EC15F0F3CF01F092
:10193000040EE1260150006E060A02E1050E006E5B
:101940000350E56E0250E56EE56A090EE56E73EC34
:1019500015F0016EF3CF02F0040EE126010EE56EE4
:10196000E56A0250E56E0150E56EE5EC11F0016E9E
:10197000F3CF02F0040EE1260050020DF450036E86
:10198000F3CF00F0E40E0026050E032200C0E9FFAD
:1019900003C0EAFFEECF00F0EFCF03F00150800864
:1019A000016E000E0256D88002AED89007E3021CEA
:1019B000056E011C046E044A052A04D001C004F01F
:1019C00002C005F004508008046E000E0556055054
:1019D000E56E0450E56E0350E56E0050E56E73EC65
:1019E00015F0F3CF01F0040EE1260150006E016AFC
:1019F00000BE016801C0F3FF0050E4CF05F0E4CF62
:101A000004F0E4CF03F0E4CF02F0E4CF01F0E4CF40
:101A100000F0E4CFD9FF1200D9CFE5FFE1CFD9FF25
:101A200000C0E5FF01C0E5FF02C0E5FF03C0E5FF20
:101A300004C0E5FF05C0E5FF06C0E5FF07C0E5FF00
:101A400008C0E5FF09C0E5FF0AC0E5FF020EDBCFD5
:101A500000F0030EDBCF01F0040EDBCF02F0050E29
:101A6000DBCF03F0060EDBCF04F0070EDBCF05F073
:101A7000080EDBCF06F0090EDBCF07F0086A045032
:101A800005100610071005E1E968F468F368E868D6
:101A900047D0096A0750800BE8440A6E0A501BE1E0
:101AA000045004260536063607360750035C08E165
:101AB0000650025C05E10550015C02E10450005C47
:101AC00006E2D890073206320532043204D0092AE1
:101AD00009C008F0DFD70750035C08E10650025C3C
:101AE00005E10550015C02E10450005C08E304508C
:101AF000005E0550015A0650025A0750035AD8900A
:101B0000073206320532043208C009F008060950CF
:101B1000E2E103C0E9FF02C0F4FF01C0F3FF00509F
:101B2000E4CF0AF0E4CF09F0E4CF08F0E4CF07F007
:101B3000E4CF06F0E4CF05F0E4CF04F0E4CF03F007
:101B4000E4CF02F0E4CF01F0E4CF00F0E4CFD9FF1E
:101B50001200D9CFE5FFE1CFD9FF00C0E5FF01C0FA
:101B6000E5FF02C0E5FF03C0E5FF04C0E5FF05C0D7
:101B7000E5FF06C0E5FF07C0E5FF08C0E5FF09C0B7
:101B8000E5FF0AC0E5FF0BC0E5FF0CC0E5FF0DC097
:101B9000E5FF020EDBCF00F0030EDBCF01F0040EF9
:101BA000DBCF02F0050EDBCF03F0060EDBCF04F037
:101BB000070EDBCF05F0080EDBCF06F0090EDBCFFA
:101BC00007F0086A096A0A6A0B6A200E0C6E035055
:101BD000800BE8440D6E00500026013602360336B5
:101BE0000850082609360A360B360D50D8A408804E
:101BF00007500B5C08E106500A5C05E10550095CE2
:101C000002E10450085C09E30450085E0550095ADB
:101C100006500A5A07500B5A00800C040D6E0DC076
:101C20000CF00D50D4E103C0E9FF02C0F4FF01C085
:101C3000F3FF0050E4CF0DF0E4CF0CF0E4CF0BF055
:101C4000E4CF0AF0E4CF09F0E4CF08F0E4CF07F0E6
:101C5000E4CF06F0E4CF05F0E4CF04F0E4CF03F0E6
:101C6000E4CF02F0E4CF01F0E4CF00F0E4CFD9FFFD
:101C7000120000C0E5FF01C0E5FF03C0E5FF04C09E
:101C8000E5FF05C0E5FF06C0E5FF07C0E5FF08C0AA
:101C9000E5FF09C0E5FF0AC0E5FF0BC0E5FF32CF55
:101CA00000F033CF01F00F01323F01D0332B005051
:101CB000E56E77EC1CF0E652076E046A056A066A68
:101CC00032CF00F033CF01F00F01323F01D0332B80
:101CD0000050E56E77EC1CF0E6520B6A0A6E086A5B
:101CE0000850041205120A5006120B50071232CF88
:101CF00000F033CF01F00F01323F01D0332B005001
:101D0000E56E77EC1CF0E652036E006A03C001F04A
:101D1000E86A03BEFF0E086E096E005004120150FF
:101D20000512085006120950071232CF00F033CFC7
:101D300001F00F01323F01D0332B0050E56E77ECFC
:101D40001CF0E652016A0412015005120612071235
:101D500007C0E9FF06C0F4FF05C0F3FF0450E4CF5D
:101D60000BF0E4CF0AF0E4CF09F0E4CF08F0E4CFC1
:101D700007F0E4CF06F0E4CF05F0E4CF04F0E4CFC1
:101D800003F0E4CF01F0E4CF00F0120000C0E5FF63
:101D900001C0E5FF02C0E5FF03C0E5FF04014751B4
:101DA0000401461901E163D047C400F0002A009EF7
:101DB000016A000E00260E0E012200C0E9FF01C0DC
:101DC000EAFFEFCF51F41F0E0401511747C450F43E
:101DD0005151040150275051006E020E0024506FE3
:101DE000509F9DEC19F0006E005003E1006A002A3C
:101DF00001D0006A9DEC19F00401516F51C401F04B
:101E0000800E011651C402F01F0E021602C003F02C
:101E100002C051F4035003E146C447F43BD00050E4
:101E20001EE0015022E09DEC19F0006E04015151BA
:101E3000026E0204516F0050420A17E000504E0A31
:101E400003E1F1EC17F011D00050460A03E1B9ECC0
:101E50001CF00BD00050490A08E1FF0006D047C42F
:101E600052F40150D8B49AEC08F050C447F405017C
:101E7000F2510501F31906E00401485103E1DFECDA
:101E80000FF008D094B006D00401485103E1ACB281
:101E900085EC1CF0E4CF03F0E4CF02F0E4CF01F0D6
:101EA000E4CF00F01200D9CFE5FFE1CFD9FF00C0A9
:101EB000E5FF01C0E5FF02C0E5FF03C0E5FF04C088
:101EC000E5FF05C0E5FF06C0E5FF07C0E5FF020E20
:101ED000DBCF00F0030EDBCF01F0040EDBCF02F00E
:101EE000050EDBCF03F002C006F00650046E800A38
:101EF00033E100C0E9FF01C0F3FF025001EC1BF029
:101F0000056EF3CF06F0F4CF07F003C0E5FF05C080
:101F1000E9FF06C0F3FF0750C4EC1CF000C0E9FF66
:101F200001C0F3FF025001EC1BF0056EF3CF06F089
:101F3000F4CF07F0052A02E3064A072A05C0E5FFA9
:101F400006C0F4FF07C0F6FF00C0E9FF01C0F3FFC1
:101F500002505AEC1CF020D004C000F000AA1CD0A3
:101F6000007A0050046E04E10350FBEC1CF014D026
:101F70000450010A04E1035002EC00F00DD00450BB
:101F80000F0A04E1035043EC19F006D004500E0A86
:101F900003E103500BEC1DF0E4CF07F0E4CF06F0B3
:101FA000E4CF05F0E4CF04F0E4CF03F0E4CF02F097
:101FB000E4CF01F0E4CF00F0E4CFD9FF120000C07D
:101FC000E5FF01C0E5FF02C0E5FF03C0E5FFACA2ED
:101FD00077D0A7EC1AF0006E005005E10501F36B15
:101FE0000501F26B6DD0F3C501F000500126A7EC9E
:101FF0001AF0026E00060250230A1FE1010E005C77
:10200000D8A05CD0A7EC1AF0036E690A03E112ECC9
:1020100019F054D00350720A03E185EC1CF04ED045
:102020000350730A01E04AD09480AB869D8A9D9844
:10203000AE50AE50AB98AB8841D00250430A05E099
:102040000250420A01E03AD001D0008E04014A6BEE
:1020500000C04BF400500401006F04014A2B05013D
:10206000F351011814E0A7EC1AF0006E04014B279D
:10207000000E04014A25026E036A040E032202C008
:10208000E9FF03C0EAFF00C0EFFF4A2BE8D7000ECC
:1020900004014A25006E026A040E022204014B1D4F
:1020A000036E032A00C0E9FF02C0EAFF03C0EFFF8E
:1020B00004014A2B4AC448F40401426B01C0F3F501
:1020C000E4CF03F0E4CF02F0E4CF01F0E4CF00F07E
:1020D0001200D9CFE5FFE1CFD9FF00C0E5FF01C075
:1020E000E5FF02C0E5FF03C0E5FF04C0E5FF05C052
:1020F000E5FF06C0E5FF020EDBCF00F0030EDBCFED
:1021000001F0040EDBCF02F0050EDBCF03F003C0BD
:1021100004F0056A0350D8B453D000C0E9FF01C0F1
:10212000F3FF025049EC1CF0066E430A03E1010E76
:10213000056E038E0406002A02E3014A022A9D9AD4
:10214000AB9894909D989EA8FED7AC80AD6A000095
:102150009EA8FED7AC9003C0ADFF00009EA8FED79E
:10216000055005E0420EAD6E0324056E05D0620EEB
:10217000AD6E620E0324056E04C003F0035015E03B
:1021800000009EA8FED700C0E9FF01C0F3FF025087
:1021900049EC1CF0046E04C0ADFF04500526030694
:1021A000002A02E3014A022AE9D700009EA8FED7CE
:1021B000051CAD6EAD2A00009EA8FED785EC1CF074
:1021C000E4CF06F0E4CF05F0E4CF04F0E4CF03F071
:1021D000E4CF02F0E4CF01F0E4CF00F0E4CFD9FF88
:1021E0001200D9CFE5FFE1CFD9FF00C0E5FF01C064
:1021F000E5FF02C0E5FF03C0E5FF04C0E5FF05C041
:10220000E5FF06C0E5FF07C0E5FF020EDBCF00F0EB
:10221000030EDBCF01F0040EDBCF02F0050EDBCFA7
:1022200003F0F3C5F4F50501F2510501F45FF45133
:10223000046E0404F46F03C004F0056A030E042660
:10224000D8B0052AF4C506F0076A0750800FF36E70
:102250000550800FF35C02E10450065C02E2E8687E
:102260002ED0020E035C02E2E86A29D00306035076
:10227000E56E2DEC18F0E652046A0350045C14E29B
:1022800004500024056EE86A0120066EE86A022008
:1022900005C0E9FF06C0F3FF49EC1CF0042AE56E17
:1022A0002DEC18F0E652E9D7F3C5F4F50501F2512B
:1022B0000501F45FF451006E0004F46FE86AE4CFA6
:1022C00007F0E4CF06F0E4CF05F0E4CF04F0E4CF6C
:1022D00003F0E4CF02F0E4CF01F0E4CF00F0E4CF6C
:1022E000D9FF1200D9CFE5FFE1CFD9FF00C0E5FF4C
:1022F00001C0E5FF02C0E5FF03C0E5FF04C0E5FF44
:1023000005C0E5FF06C0E5FF020EDBCF00F0030EBF
:10231000DBCF01F0040EDBCF02F000C0E9FF01C00B
:10232000F3FF025087EC1AF0036EF3CF04F0F4CF02
:1023300005F0E9CF06F00650E56E0550E56E045055
:10234000E56E0350E56E410EE56EC60EE56E4E0E6F
:10235000E56E6D0EE56EA7EC09F0036EF3CF04F0A9
:10236000F4CF05F0E9CF06F0080EE126390E03267A
:10237000300E0422000E0522062203C0E5FF04C031
:10238000F4FF05C0F6FF06C0F7FF00C0E9FF01C07B
:10239000F3FF025038EC1CF0069E06C0E9FF05C0B2
:1023A000F4FF04C0F3FF0350E4CF06F0E4CF05F0E0
:1023B000E4CF04F0E4CF03F0E4CF02F0E4CF01F087
:1023C000E4CF00F0E4CFD9FF1200D9CFE5FFE1CF91
:1023D000D9FF00C0E5FF01C0E5FF02C0E5FF03C073
:1023E000E5FF04C0E5FF05C0E5FF06C0E5FF020EFE
:1023F000DBCF00F0030EDBCF01F0040EDBCF02F0E9
:10240000050EDBCF03F0D88001AED890046A043605
:10241000045007E0011C066E001C056E054A062AE2
:1024200004D000C005F001C006F0D88003AED890FB
:1024300007E3031C016E021C006E004A012A04D04F
:1024400002C000F003C001F00150E56E0050E56EDF
:102450000650E56E0550E56EC4EC14F0006EF3CF47
:1024600001F0040EE12604500AE0011C036E001C7A
:10247000026E024A032A03C0F3FF025003D001C0D8
:10248000F3FF0050E4CF06F0E4CF05F0E4CF04F012
:10249000E4CF03F0E4CF02F0E4CF01F0E4CF00F0AA
:1024A000E4CFD9FF1200D9CFE5FFE1CFD9FF00C0BB
:1024B000E5FF01C0E5FF02C0E5FF03C0E5FF04C082
:1024C000E5FF05C0E5FF06C0E5FF020EDBCF00F02B
:1024D000030EDBCF01F0040EDBCF02F000C0E9FFFA
:1024E00001C0F3FF025087EC1AF00401856FF3CFAF
:1024F00086F4F4CF87F4E9CF88F4800EE56E040EFD
:10250000E56E850EE56E72EC11F0036EF3CF04F00C
:10251000F4CF05F0E9CF06F0030EE12603C0E5FF96
:1025200004C0F4FF05C0F6FF06C0F7FF00C0E9FFD6
:1025300001C0F3FF025038EC1CF000C0E9FF01C0FD
:10254000F3FF025087EC1AF0F3CF01F0F4CF02F062
:10255000E9CF03F003C0E9FF02C0F4FF01C0F3FFBD
:10256000E4CF06F0E4CF05F0E4CF04F0E4CF03F0CD
:10257000E4CF02F0E4CF01F0E4CF00F0E4CFD9FFE4
:102580001200D9CFE5FFE1CFD9FF00C0E5FF01C0C0
:10259000E5FF02C0E5FF03C0E5FF04C0E5FF05C09D
:1025A000E5FF020EDBCF00F0030EDBCF01F0040EDF
:1025B000DBCF02F0050EDBCF03F032CF04F033CFD8
:1025C00005F00F01323F01D0332B0350E56E04506C
:1025D000E56E63EC1AF0E652E65232CF04F033CFE8
:1025E00005F00F01323F01D0332B0250056EE56E2E
:1025F0000450E56E63EC1AF0E652E65232CF04F076
:1026000033CF05F00F01323F01D0332B0150E56E7F
:102610000450E56E63EC1AF0E652E65232CF04F055
:1026200033CF05F00F01323F01D0332B0050E56E60
:102630000450E56E63EC1AF0E652E652E4CF05F082
:10264000E4CF04F0E4CF03F0E4CF02F0E4CF01F0F4
:10265000E4CF00F0E4CFD9FF1200D8CFE5FFE0CF00
:10266000E5FFE56EF3CFE5FFF4CFE5FFE9CFE5FF4A
:10267000EACFE5FFFACFE5FFFBCFE5FF00C0E5FFBE
:1026800001C0E5FFF6CFE5FFF6CFE5FFF7CFE5FFA9
:10269000F8CFE5FFF5CFE5FFE1CFE5FFE2CFE5FFBE
:1026A0000501F0510401366F0501F1510401376F46
:1026B000D650346FD750356FF2A417D0F0C500F064
:1026C000F1C501F00050010F0501F06F000E01206F
:1026D000F16FF294F0510401366F0501F1510401DC
:1026E000376FD650346FD750356FE4CFE2FFE4CF69
:1026F000E1FFE4CFF5FFE4CFF8FFE4CFF7FFE4CF4D
:10270000F6FFE4CFF6FFE4CF01F0E4CF00F0E4CF32
:10271000FBFFE4CFFAFFE4CFEAFFE4CFE9FFE4CF29
:10272000F4FFE4CFF3FFE450E4CFE0FFE4CFD8FFC1
:102730001000D9CFE5FFE1CFD9FF00C0E5FF01C010
:10274000E5FF02C0E5FF03C0E5FF04C0E5FF05C0EB
:10275000E5FF06C0E5FF020EDBCF00F0030EDBCF86
:1027600001F0040EDBCF02F00401415119E139EC14
:102770000EF0036EF3CF04F0F4CF05F0E9CF06F0CE
:1027800003C0E5FF04C0F4FF05C0F6FF06C0F7FF75
:1027900000C0E9FF01C0F3FF025038EC1CF01ED06E
:1027A00004014151010A1AE100C0E9FF01C0F3FF31
:1027B000025087EC1AF0006EF3CF01F0F4CF02F074
:1027C000E9CF03F00350E56E0250E56E0150E56E6F
:1027D0000050E56EC1EC12F0040EE126E4CF06F0E5
:1027E000E4CF05F0E4CF04F0E4CF03F0E4CF02F04F
:1027F000E4CF01F0E4CF00F0E4CFD9FF1200D9CF4D
:10280000E5FFE1CFD9FF00C0E5FF01C0E5FF02C051
:10281000E5FF03C0E5FF04C0E5FF05C0E5FF06C016
:10282000E5FF020EDBCF00F0030EDBCF01F0040E5C
:10283000DBCF02F0050EDBCF03F0060EDBCF04F09A
:10284000070EDBCF05F0080EDBCF06F0D88003AE15
:10285000D89015E306500A0A12E104C0E9FF05C04A
:10286000EAFF2D0EEF6E044A052A031E021E011E0A
:10287000006C05E1012A03E1022AD8B4032A0650BC
:10288000E56E0550E56E0450E56E0350E56E0250AE
:10289000E56E0150E56E0050E56EB1EC0AF0070EF2
:1028A000E126E4CF06F0E4CF05F0E4CF04F0E4CF76
:1028B00003F0E4CF02F0E4CF01F0E4CF00F0E4CF86
:1028C000D9FF120000C0E5FF01C0E5FF02C0E5FF2F
:1028D00003C0E5FFC6EC0EF08DEC0BF073EC19F0C5
:1028E000006EF3CF01F0F4CF02F0E9CF03F0040162
:1028F0003051005E3151015A3251025A3351035A5C
:10290000039E3F0E035C08E1FF0E025C05E1FF0E33
:10291000015C02E1FF0E005C2EE273EC19F0F3CFD4
:1029200001F0F4CF02F0E9CF03F0100F0401306F93
:10293000270E0120316F000E0220326F000E03209F
:10294000336F30CF00F031CF01F00F01303F01D0B5
:10295000312B0050190A02E1015001E008D00F01AB
:10296000306B316B82A202D08B9201D08B820EEC45
:1029700004F0F2EC05F0E4CF03F0E4CF02F0E4CF92
:1029800001F0E4CF00F01200D9CFE5FFE1CFD9FF8D
:1029900000C0E5FF01C0E5FF02C0E5FF03C0E5FFA1
:1029A00004C0E5FF05C0E5FF06C0E5FF020EDBCF72
:1029B00000F0030EDBCF01F0040EDBCF02F0050EBA
:1029C000DBCF03F0046A056A0350800BE844066E0F
:1029D000065011E10250022603360350015C02E169
:1029E0000250005C04E2D8900332023204D0052A7F
:1029F00005C004F0E9D70350015C02E10250005C1D
:102A000004E30250005E0350015AD89003320232B0
:102A100004C005F004060550EEE101C0F3FF0050CC
:102A2000E4CF06F0E4CF05F0E4CF04F0E4CF03F008
:102A3000E4CF02F0E4CF01F0E4CF00F0E4CFD9FF1F
:102A4000120000C0E5FF01C0E5FF02C0E5FF03C0C2
:102A5000E5FF47C400F0016A52C402F0036A025065
:102A6000005E0350015AE56A800EE56E0150E56E86
:102A70000050E56EE5EC11F0006E040EE126000654
:102A800052C401F0430E43EC19F0200E43EC19F050
:102A9000005020E0000E0124026E036A0E0E032295
:102AA00002C0E9FF03C0EAFFEFCF02F0E56A02507F
:102AB000E56E000EE56E390EE56E220EE56E35EC24
:102AC00017F0050EE126012A0150800A01E1016A92
:102AD0000006DED7E4CF03F0E4CF02F0E4CF01F04C
:102AE000E4CF00F01200D9CFE5FFE1CFD9FF00C05D
:102AF000E5FF01C0E5FF02C0E5FF03C0E5FF020EF0
:102B0000DBCF00F0030EDBCF01F0040EDBCF02F0D1
:102B1000050EDBCF03F000500401396F01503A6F0E
:102B2000025004013B6F03503C6F04013951040112
:102B30003B03F4CF01F0F3CF00F0005004013D6FF0
:102B400001503E6F0401395104013C03F3CF00F002
:102B500004013A5104013B03F3CF01F00150002678
:102B600004013E51002600503E6F3EC4F3FF3D512C
:102B7000E4CF03F0E4CF02F0E4CF01F0E4CF00F0C3
:102B8000E4CFD9FF1200D9CFE5FFE1CFD9FF00C0D4
:102B9000E5FF01C0E5FF02C0E5FF03C0E5FF04C09B
:102BA000E5FF020EDBCF00F0030EDBCF01F0040ED9
:102BB000DBCF02F00401415111E1DEEC18F0036EAD
:102BC000F3CF04F003C0E5FF04C0F4FF00C0E9FF49
:102BD00001C0F3FF0250A1EC1CF016D004014151DA
:102BE000010A12E100C0E9FF01C0F3FF0250C0EC8E
:102BF0001BF0006EF3CF01F00150E56E0050E56E62
:102C0000B4EC17F0E652E652E4CF04F0E4CF03F060
:102C1000E4CF02F0E4CF01F0E4CF00F0E4CFD9FF3D
:102C20001200CE0EF66E390EF76E000EF86E090029
:102C3000F550056E0900F550066E04E1056702D0F7
:102C40005EEF16F00900F550006E0900F550016EB8
:102C50000900F550026E09000900F550E96E0900FF
:102C6000F550EA6E090009000900F550036E0900ED
:102C7000F550046E09000900F6CF07F0F7CF08F011
:102C8000F8CF09F000C0F6FF01C0F7FF02C0F8FF5F
:102C9000035002E1045007E00900F550EE6E030610
:102CA000F8E20406F9D707C0F6FF08C0F7FF09C02D
:102CB000F8FF050601E206061DEF16F01200D9CF57
:102CC000E5FFE1CFD9FF00C0E5FF01C0E5FF02C08D
:102CD000E5FF03C0E5FF04C0E5FF020EDBCF00F017
:102CE000030EDBCF01F0040EDBCF02F00050011029
:102CF00026E0010E015C02E1C30E005C20E2010E41
:102D0000015C02E1000E005C10E30050036EFF0E58
:102D10000124046E000E0326050E042203C0E9FF01
:102D200004C0EAFF02C0EFFF0AD0000E0026020E28
:102D3000012200C0E9FF01C0EAFF02C0EFFFE4CFBB
:102D400004F0E4CF03F0E4CF02F0E4CF01F0E4CFED
:102D500000F0E4CFD9FF120000C0E5FF01C0E5FF9D
:102D600002C0E5FF03C0E5FF006A016A0150800F61
:102D70007F0F02E1000E005C0FE30050026EFF0EB9
:102D80000124036E000E0226050E032202C0E9FF95
:102D900003C0EAFFEF6A0BD0000E0024026E020EA1
:102DA0000120036E02C0E9FF03C0EAFFEF6A004A98
:102DB000012A0150800F7F0F02E1C30E005CD6E3B1
:102DC0008A8C939C7086728A7284728C7280718EE7
:102DD0000F01366B376BE4CF03F0E4CF02F0E4CFA2
:102DE00001F0E4CF00F01200D8CFE5FFE0CFE5FF1F
:102DF000E56EF3CFE5FFF4CFE5FFE9CFE5FFEACFDE
:102E0000E5FFFACFE5FFFBCFE5FFF6CFE5FFF6CF15
:102E1000E5FFF7CFE5FFF8CFE5FFF5CFE5FFE1CF21
:102E2000E5FFE2CFE5FF79EC07F0E4CFE2FFE4CF86
:102E3000E1FFE4CFF5FFE4CFF8FFE4CFF7FFE4CF05
:102E4000F6FFE4CFF6FFE4CFFBFFE4CFFAFFE4CFD9
:102E5000EAFFE4CFE9FFE4CFF4FFE4CFF3FFE4506F
:102E6000E4CFE0FFE4CFD8FF1000D9CFE5FFE1CFFA
:102E7000D9FF00C0E5FF01C0E5FF02C0E5FF020E7B
:102E8000D924006E000EDA20016E800E026E030E51
:102E90000026000E012202220250E56E0150E56E6E
:102EA0000050E56E040EDBCFE5FF030EDBCFE5FF40
:102EB000020EDBCFE5FF0F012951E56E2851E56ECB
:102EC0002751E56E0EEC00F0006EF3CF01F0090E15
:102ED000E12601C0F3FF0050E4CF02F0E4CF01F09F
:102EE000E4CF00F0E4CFD9FF1200D9CFE5FFE1CF66
:102EF000D9FF00C0E5FF01C0E5FF02C0E5FF03C048
:102F0000E5FF020EDBCF00F0030EDBCF01F0040E75
:102F1000DBCF02F0040141510DE194EC1BF0036E94
:102F200003C0E5FF00C0E9FF01C0F3FF0250C4EC9D
:102F30001CF00FD004014151010A0BE100C0E9FF70
:102F400001C0F3FF025049EC1CF0E56E3DEC1AF0B5
:102F5000E652E4CF03F0E4CF02F0E4CF01F0E4CF97
:102F600000F0E4CFD9FF1200D9CFE5FFE1CFD9FFC0
:102F700000C0E5FF01C0E5FF02C0E5FF03C0E5FFBB
:102F8000020EDBCF00F0030EDBCF01F032CF02F0F8
:102F900033CF03F00F01323F01D0332B0150E56EE8
:102FA0000250E56E63EC1AF0E652E65232CF02F0C0
:102FB00033CF03F00F01323F01D0332B0050E56EC9
:102FC0000250E56E63EC1AF0E652E652E4CF03F0ED
:102FD000E4CF02F0E4CF01F0E4CF00F0E4CFD9FF7A
:102FE000120000C0E5FF01C0E5FF02C0E5FF9DEC57
:102FF00019F0006E9DEC19F0016ED00E00260A0E3D
:10300000005C05E30050026EF90E0224006ED00E43
:1030100001260A0E015C05E30150026EF90E02243E
:10302000016E080E005C12E2100E015CD8B00ED0EA
:103030000038F00B0124006EA4EC18F0016E015072
:1030400005E10050E56E36EC1BF0E652E4CF02F0ED
:10305000E4CF01F0E4CF00F01200D9CFE5FFE1CFDB
:10306000D9FF00C0E5FF01C0E5FF02C0E5FF03C0D6
:10307000E5FF04C0E5FF020EDBCF00F0F2C501F072
:10308000026A014A022AF3C503F0046A01500318D8
:1030900003E10250041801E001D00ED0000E05013A
:1030A000F225016E026A010E022201C0E9FF02C090
:1030B000EAFF00C0EFFFF22BE4CF04F0E4CF03F00F
:1030C000E4CF02F0E4CF01F0E4CF00F0E4CFD9FF89
:1030D0001200D9CFE5FFE1CFD9FF00C0E5FF01C065
:1030E000E5FF02C0E5FF03C0E5FF020EDBCF00F005
:1030F000016A52C402F0036A025000260350012202
:10310000E56A800EE56E0150E56E0050E56EE5EC77
:1031100011F0006EF3CF01F0040EE126000E002640
:103120000E0E012200C0E9FF01C0EAFFEFCF00F060
:103130000050E4CF03F0E4CF02F0E4CF01F0E4CF9D
:1031400000F0E4CFD9FF120000C0E5FF01C0E5FFA9
:1031500002C0E5FF010E006E9DEC19F0016E01C08A
:1031600002F0015023E00050E56E77EC1CF0016E98
:10317000E652015010E10A0E005C0BE20A0E006EEE
:10318000E56E77EC1CF0016EE652015004E1E86850
:103190000ED0E8680CD00150021802E0E86807D0B1
:1031A000002A1B0E005CD8E3E86801D0E86AE4CF8F
:1031B00002F0E4CF01F0E4CF00F0120000C0E5FF20
:1031C00001C0E5FF02C0E5FF03C0E5FF32CF00F01C
:1031D00033CF01F00F01323F01D0332B0050E56EA9
:1031E00077EC1CF0E652036E026A32CF00F033CF68
:1031F00001F00F01323F01D0332B0050E56E77EC28
:103200001CF0E652016A02120150031203C0F3FFE0
:103210000250E4CF03F0E4CF02F0E4CF01F0E4CFBA
:1032200000F012000501F26B0501F36B0501F46972
:1032300094808B909480B06A3F0EAF6EB886AC8A53
:10324000AC84AC8CAC90AB8CAB8E0401496B0401AC
:10325000436B0401466B0401476B0401486B000E8D
:10326000E56A77EC1CF00501F66FE6529F989F9A8D
:10327000010E0501F56F0F01276B286B2F0E296FCB
:1032800085EC1CF0120000C0E5FF01C0E5FF02C0A4
:10329000E5FF006E000E0501F725016E026A0F0EB4
:1032A000022201C0E9FF02C0EAFF00C0EFFF220EC8
:1032B000F75DD8A0F72B00500A0A0EE10501F7517F
:1032C000E56E800EE56E0F0EE56E000EE56EF1EC1C
:1032D00010F0040EE126F76BE4CF02F0E4CF01F02A
:1032E000E4CF00F012000501F0510401836F0501E5
:1032F000F1510401846FD650816FD750826F835192
:103300000501F01905E1040184510501F1190CE0F2
:103310000501F0510401836F0501F1510401846F2F
:10332000D650816FD750826F84C4E9FF83C4F4FF05
:1033300082C4F3FF04018151120000C0E5FF01C007
:10334000E5FF040147510401501905E0040147510C
:103350000401461902E1E86A15D047C400F00401EF
:10336000472B016A000E00260E0E012200C0E9FF65
:1033700001C0EAFFEFCF00F04751800A02E10401EB
:10338000476B0050E4CF01F0E4CF00F0120000C022
:10339000E5FF01C0E5FF02C0E5FF03C0E5FF800EC9
:1033A000E56E050EE56EFB0EE56E72EC11F0006E3B
:1033B000F3CF01F0F4CF02F0E9CF03F0030EE126E2
:1033C00003C0E9FF02C0F4FF01C0F3FF0050E4CFE7
:1033D00003F0E4CF02F0E4CF01F0E4CF00F01200FC
:1033E00000C0E5FFFFEC1CF00401896B806B898352
:1033F000006A89B3002A0050010BE844F46E805142
:10340000FD0BF410806FD58ED59CD59AD588D596B6
:10341000D594D582D580F28AF184D08EF28EF28C4A
:10342000BA80FF0EBB68BA84E4CF00F0120001C07E
:10343000E5FF02C0E5FF03C0E5FFEEEC1CF094924F
:10344000ACEC16F073EC19F0F3CF01F0F4CF02F00E
:10345000E9CF03F0100F0401306F270E0120316F08
:10346000000E0220326F000E0320336FE4CF03F012
:10347000E4CF02F0E4CF01F01200D9CFE5FFE1CFB5
:10348000D9FF00C0E5FF01C0E5FF02C0E5FF020E65
:10349000DBCF00F032CF01F033CF02F00F01323F2B
:1034A00001D0332B0050E56E0150E56E63EC1AF04D
:1034B000E652E652E4CF02F0E4CF01F0E4CF00F0B0
:1034C000E4CFD9FF1200D9CFE5FFE1CFD9FF00C08B
:1034D000E5FF020EDBCF00F0030EDBCFA8FF00C03C
:1034E000A9FFA69EA69CA684F29EF29C550EA76EEE
:1034F000AA0EA76EA682A6A202D00000FCD7A694B0
:10350000F28EF28CE4CF00F0E4CFD9FF1200E8AEE7
:103510000AD0F3CFEAFFEE50EECFF3FFEECFF4FF89
:10352000EECFE9FF1200E8BC12EF1DF0E9CFF6FF85
:10353000F3CFF7FFF86E0900F5500900F5CFF3FF60
:103540000900F5CFF4FF0900F5CFE9FF120000C034
:10355000E5FF01C0E5FF0501F2510501F31902E1A4
:10356000E86A0FD0000E0501F325006E016A010E16
:10357000012200C0E9FF01C0EAFFEFCF00F0F32B0A
:103580000050E4CF01F0E4CF00F01200F2CFEAFFE8
:10359000F29EA69EA69CA684E9CFA9FFF3CFAAFF20
:1035A000E4CFA8FFCFEC1CF0F4CFA8FFCFEC1CF0C9
:1035B000F6CFA8FFCFEC1CF0F7CFA8FFCFEC1CF0A4
:1035C000A694EABEF28E1200F2CFF6FFF29EA69EFD
:1035D000A69CE9CFA9FFF3CFAAFFA680A850A94ACD
:1035E000AA2AA680A8CFF3FFA94AAA2AA680A8CF14
:1035F000F4FFA94AAA2AA680A8CFEAFFF6BEF28E57
:103600001200E8AE08D0F3CFEAFFEE50EECFF3FFA2
:10361000EECFF4FF1200E8BC1AEF1DF0E9CFF6FF81
:10362000F3CFF7FFF86E0900F5500900F5CFF3FF6F
:103630000900F5CFF4FF1200F2CFEAFFF29EA69E3A
:10364000A69CA684E9CFA9FFF3CFAAFFE4CFA8FFE9
:10365000CFEC1CF0F4CFA8FFCFEC1CF0F6CFA8FF06
:10366000CFEC1CF0A694EABEF28E1200D9CFE5FF93
:10367000E1CFD9FF00C0E5FF020EDBCF00F000C0B4
:10368000F6F50050E56E000EE56A63EC1AF0E652BE
:10369000E652E4CF00F0E4CFD9FF1200F2CFF6FFFC
:1036A000F29EA69EA69CE9CFA9FFF3CFAAFFA68013
:1036B000A850A94AAA2AA680A8CFF3FFA94AAA2AF5
:1036C000A680A8CFF4FFF6BEF28E120000C0E5FF80
:1036D00001C0E5FF000E04014725006E016A0E0ED1
:1036E000012200C0E9FF01C0EAFFEFCF00F0005067
:1036F000E4CF01F0E4CF00F01200D9CFE5FFE1CF35
:10370000D9FF00C0E5FF020EDBCF00F0610E005CC8
:1037100005E37B0E005C02E2010E01D0E86AE4CF13
:1037200000F0E4CFD9FF120000C0E5FF01C0E5FFC3
:1037300032CF00F033CF01F00F01323F01D0332BF5
:103740000050E56E77EC1CF0E652E4CF01F0E4CFD8
:1037500000F01200D9CFE5FFE1CFD9FF00C0E5FFAF
:10376000020EDBCF00F000C0F5F5005004E185EC5F
:103770001CF09D9A9D98E4CF00F0E4CFD9FF120091
:10378000E8AE06D0F3CFEAFFEE50EECFF3FF120023
:10379000E8BC10EF1DF0E9CFF6FFF3CFF7FFF86EAE
:1037A0000900F5500900F5CFF3FF1200F2CFEAFF50
:1037B000F29EA69EA69CA684E9CFA9FFF3CFAAFFFE
:1037C000E4CFA8FFCFEC1CF0F4CFA8FFCFEC1CF0A7
:1037D000A694EABEF28E120013EEFFF023EEFFF085
:1037E000F86AA68EA69CE9680E0EEA6E0068000EC6
:1037F000ED6A0050FDE111EC16F006EC00F0FFD789
:10380000D9CFE5FFE1CFD9FF020EDBCFFBF5030EE9
:10381000DBCFFCF5040EDBCFFDF5050EDBCFFEF5AF
:10382000E4CFD9FF1200F2CFF6FFF29EA69EA69C2F
:10383000E9CFA9FFF3CFAAFFA680A850A94AAA2AD8
:10384000A680A8CFF3FFF6BEF28E1200F2CFEAFFF9
:10385000F29EA69EA69CA684E9CFA9FFF3CFAAFF5D
:10386000E4CFA8FFCFEC1CF0A694EABEF28E1200C3
:10387000E8AE0BD0F3CFEAFFE4CFEEFFF4CFEEFFDC
:10388000F6CFEEFFF7CFEEFF1200E8BC14EF1DF00D
:103890001200E8AE04D0F3CFEAFFEE501200E8BC0D
:1038A0000EEF1DF0E9CFF6FFF3CFF7FFF86E09003A
:1038B000F5501200E8AE09D0F3CFEAFFE4CFEEFFF7
:1038C000F4CFEEFFF6CFEEFF1200E8BC1CEF1DF0C8
:1038D00012000900010001000100010001000100C7
:1038E000000000FF000000FDFF0001000000D9CF34
:1038F000E5FFE1CFD9FF020EDBCFA9FFA69CA69E74
:10390000A680A850E4CFD9FF1200ACA2FED79480C5
:10391000AE500000AE50AB98AB88AB869D8A9D98A8
:10392000120025642000F2CFF6FFF29EA69EA69C10
:10393000E9CFA9FFF3CFAAFFA680A850F6BEF28E6A
:103940001200E8AE07D0F3CFEAFFE4CFEEFFF4CFEA
:10395000EEFF1200E8BC18EF1DF01200700ED36EDF
:103960009B8CFF0E9268936894689668626AF19ED9
:10397000120000C0E5FFA4EC18F0006E005001E159
:10398000FF00E4CF00F01200E8AE05D0F3CFEAFF6D
:10399000E4CFEEFF1200E8BC16EF1DF01200550E4A
:1039A000A76EAA0EA76EA682A6B2FED7A94AAA2A19
:1039B000010E0401416F1C0E0F01326F336B1200B8
:1039C0000401416B1C0E0F01326F336B12000100BA
:1039D000D2380000E30500001C000000F0EC19F0F4
:1039E00012EC19F01200766AA50E756E1200766A56
:1039F0003F0E756E1200ACA2FED7AD6E1200AEEC9B
:103A00001CF0120004014751120004015151120030
:103A10000501F5511200E8CF7FFF120093EF1CF073
:103A200013EF1CF0E4EF1AF0C6EF1AF026EF1CF0CB
:0C3A3000D6EF1BF04EEF1BF01CEF1BF05C
:020000040030CA
:010006008574
:00000001FF
