:020000040000FA
:1000000051EF14F0C96E1200F8EF0BF00000000081
:10001000FF000000FDFF000021EF0FF0D9CFE5FF4A
:10002000E1CFD9FF00C0E5FF01C0E5FF02C0E5FF59
:1000300003C0E5FF04C0E5FF05C0E5FF06C0E5FF1E
:1000400007C0E5FF08C0E5FF09C0E5FF0AC0E5FFFE
:100050000BC0E5FF0CC0E5FF0DC0E5FF0EC0E5FFDE
:100060000FC0E5FF10C0E5FF11C0E5FF12C0E5FFBE
:1000700013C0E5FF14C0E5FF15C0E5FF16C0E5FF9E
:1000800017C0E5FF18C0E5FF19C0E5FF1AC0E5FF7E
:100090001BC0E5FF1CC0E5FF1DC0E5FF1EC0E5FF5E
:1000A000020EDBCF00F0030EDBCF01F0040EDBCF3E
:1000B00002F0050EDBCF03F0060EDBCF04F0070ED7
:1000C000DBCF05F0080EDBCF06F0090EDBCF07F023
:1000D0000A0EDBCF08F0096A0A6A02C00DF00D5063
:1000E000800A0DE1025004018F6F01508E6F0050A5
:1000F0008D6F040E016E8D0E006E800E026E03C0B9
:10010000E9FF04C0F3FF05509BEC14F00B6E0B509D
:10011000D8B4C4EF03F00B50250A02E0ABEF03F0B4
:100120000C6A0D6A0E6A0F6A106A0A0E116E126A64
:10013000136A146A200E156E1668176A2B0E186E55
:10014000032A02E3044A052A03C0E9FF04C0F3FFBF
:1001500005509BEC14F0196E250A13E11950E56E59
:100160000250E56E0150E56E0050E56EFFEC08F0C0
:10017000040EE126094A0A2A032A02E3044A052A50
:10018000BED71950300A06E1300E156E032A02E37D
:10019000044A052A03C0E9FF04C0F3FF05509BECA5
:1001A00014F02D0A06E1010E146E032A02E3044A3C
:1001B000052A03C0E9FF04C0F3FF05509BEC14F0CF
:1001C000200A08E1010E176E200E186E032A02E3C2
:1001D000044A052A03C0E9FF04C0F3FF05509BEC65
:1001E00014F02B0A06E1010E176E032A02E3044AFB
:1001F000052A03C0E9FF04C0F3FF05509BEC14F08F
:10020000196E310E195C2BE33A0E195C28E203C01B
:1002100019F004C01AF005C01BF019C0E9FF1AC09C
:10022000F3FF1B509BEC14F01C6E300E1C5C11E3B2
:100230003A0E1C5C0EE213500A0DF3CF1DF01C5059
:100240001D26D00E1D24136E192A02E31A4A1B2AFA
:10025000E4D719C003F01AC004F01BC005F003C0B6
:10026000E9FF04C0F3FF05509BEC14F02E0A2DE1CA
:10027000032A02E3044A052A166A03C019F004C0DF
:100280001AF005C01BF019C0E9FF1AC0F3FF1B509C
:100290009BEC14F01C6E300E1C5C11E33A0E1C5CDF
:1002A0000EE216500A0DF3CF1DF01C501D26D00E85
:1002B0001D24166E192A02E31A4A1B2AE4D719C014
:1002C00003F01AC004F01BC005F003C0E9FF04C02E
:1002D000F3FF05509BEC14F0196E6C0A07E1010E58
:1002E0000C6E032A02E3044A052A09D01950680A51
:1002F00006E1010E0E6E032A02E3044A052A03C03A
:10030000E9FF04C0F3FF05509BEC14F0750A06E109
:10031000010E106E032A02E3044A052A03C0E9FF16
:1003200004C0F3FF05509BEC14F0196E730A05E14D
:10033000010E0D6E200E156E3FD01950780A03E1A4
:10034000100E116E39D01950580A05E1100E116EB9
:10035000010E126E31D01950630A02E1116A2CD0DD
:1003600019506F0A03E1080E116E26D01950660A63
:1003700003E1010E0F6E20D01950640A1DE01950E0
:10038000690A1AE0105005E0FF0E03260422052238
:1003900013D01950E56E0250E56E0150E56E005025
:1003A000E56EFFEC08F0040EE126094A0A2A032A4A
:1003B00002E3044A052AA3D60D5021E00650030F9C
:1003C0000D6E000E0720196E000E08201A6E0DC06B
:1003D00006F019C007F01AC008F0FD0E0D26FF0E3A
:1003E00019221A220DC0E9FF19C0F3FF1A5066EC5A
:1003F00013F00D6EF3CF19F0F4CF1AF0FDD00F50BB
:100400000DE0000E1A6E080E196E100E0D6E040E21
:100410000626000E072208221668EED016680C5039
:1004200023E00650040F0C6E000E07200F6E000E26
:1004300008201B6E0CC006F00FC007F01BC008F0B0
:10044000FC0E0C26FF0E0F221B220CC0E9FF0FC072
:10045000F3FF1B50ECEC12F00C6EF3CF0FF0F4CF67
:100460001BF0E9CF1CF067D00E502FE00650020FB2
:100470000E6E000E07201D6E000E08201E6E0EC0B0
:1004800006F01DC007F01EC008F0FE0E0E26FF0E7F
:100490001D221E220EC0E9FF1DC0F3FF1E5025ECD9
:1004A00014F00E6E0EC00CF00F6A1B6A1C6A11501D
:1004B0000A0A03E11050D8B43ED00C500E6E0EC0A4
:1004C0000CF00F6A1B6A1C6A36D00650020F0E6EC3
:1004D000000E07201D6E000E08201E6E0EC006F0D6
:1004E0001DC007F01EC008F0FE0E0E26FF0E1D22D6
:1004F0001E220EC0E9FF1DC0F3FF1E5025EC14F0B4
:100500000E6EF3CF1DF00EC00CF01DC00FF0E86AA8
:100510001DBEFF0E1B6E1C6E11500A0A02E1105028
:100520000AE00C500E6E0F501D6E0EC00CF01DC078
:100530000FF01B6A1C6A040E196E240E0D6E800EDD
:100540001A6E1150D8B440D0105013E01150E56E1F
:10055000040EE56E240EE56E1C50E56E1B50E56E34
:100560000F50E56E0C50E56E2FEC05F0070EE126FE
:1005700012D01150E56E040EE56E240EE56E1C508F
:10058000E56E1B50E56E0F50E56E0C50E56ECAEC43
:100590000CF0070EE12617502FE00DC0E9FF19C03F
:1005A000F3FF1A509BEC14F02D0A26E0FF0E0D26E7
:1005B00019221A2218C0E5FF0DC0E9FF19C0F3FF88
:1005C0001A5008EC15F018D00CC0E5FF0DC0E9FF7B
:1005D00019C0F3FF1A5008EC15F00D50010F0C6E06
:1005E000000E19200E6E000E1A20E56A0CC0E9FFFD
:1005F0000EC0F3FF08EC15F00DC00CF019C00EF0A2
:100600001AC00FF013C010F0105010E00CC0E9FF3A
:100610000EC0F3FF0F509BEC14F0176E175006E05E
:100620000C2A02E30E4A0F2A1006EED710C013F070
:1006300014501EE109C00CF00AC00EF010C00FF0FB
:100640000F5010E01550E56E0250E56E0150E56E5A
:100650000050E56EFFEC08F0040EE1260C4A0E2A6D
:100660000F06EED70CC009F00EC00AF00FC013F051
:1006700016C00CF00DC00DF019C00EF01AC00FF02E
:1006800009C010F00AC015F00DC0E9FF0EC0F3FF5D
:100690000F509BEC14F0166E1650D8B43ED00CC020
:1006A00016F0176A161E171E1650171005E00CC01C
:1006B00016F00C06165031E00DC0E9FF0EC0F3FF36
:1006C0000F509BEC14F0116E125010E01150E56EBB
:1006D000E2EC13F0166EE652165004E0DF0E111431
:1006E000166E02D011C016F016C011F01150E56E52
:1006F0000250E56E0150E56E0050E56EFFEC08F02B
:10070000040EE1260D2A02E30E4A0F2A104A152A8A
:100710001350D8B4B9D71306B7D710C009F015C015
:100720000AF014502BE010C00CF015C00DF013C0EF
:100730000EF00E501FE0200EE56E0250E56E0150E7
:10074000E56E0050E56EFFEC08F0040EE1260C4A61
:100750000D2A0E06EED70B50E56E0250E56E0150E5
:10076000E56E0050E56EFFEC08F0040EE126094A44
:100770000A2A04D00CC009F00DC00AF0032A02E3D3
:10078000044A052A7FEF00F00AC0F3FF0950E4CFC6
:100790001EF0E4CF1DF0E4CF1CF0E4CF1BF0E4CF5B
:1007A0001AF0E4CF19F0E4CF18F0E4CF17F0E4CF5B
:1007B00016F0E4CF15F0E4CF14F0E4CF13F0E4CF5B
:1007C00012F0E4CF11F0E4CF10F0E4CF0FF0E4CF5B
:1007D0000EF0E4CF0DF0E4CF0CF0E4CF0BF0E4CF5B
:1007E0000AF0E4CF09F0E4CF08F0E4CF07F0E4CF5B
:1007F00006F0E4CF05F0E4CF04F0E4CF03F0E4CF5B
:1008000002F0E4CF01F0E4CF00F0E4CFD9FF120012
:100810003C4E4F20464C4F41543E000000C0E5FF87
:1008200001C0E5FF02C0E5FF03C0E5FF0F0128514D
:10083000D8B40CD19DA81DD09EA81BD004013E5158
:1008400004013C1905E1C9EC14F004013C6BFED035
:10085000000E04013E25006E016A040E012200C054
:10086000E9FF01C0EAFFEFCF36FF3E2B36CFADFFE9
:10087000EDD09DAAEBD09EAAE9D0ABA205D0040191
:100880003D81C9EC14F0E2D0ABA405D004013D8356
:10089000C9EC14F0DBD0ABA048D0AECF36FF29CFE7
:1008A00000F0016A008E36CF02F0036A0250001891
:1008B00003E10350011801E004D004013D89AB9627
:1008C000C5D00F01365104E036510F01291929E135
:1008D00004013D99AB960F01365103E004013D97A9
:1008E00002D004013D8736CF41F43AC442F40401FA
:1008F0003A51006E00040401436F600E040142256A
:10090000006E016A000E012200C0E9FF01C0EAFF8B
:1009100036CFEFFF422B4251800A02E10401426BC5
:1009200095D004013D99AB8691D0AECF36FF04013E
:100930003DA921D029CF00F0016A008E36CF02F008
:10094000036A0250001803E10350011801E011D0BE
:100950009D9AAB98949004013C5104E1AD6AC9ECB6
:1009600014F007D000C4ADFF010E04013E6F9D8856
:100970006DD0AB866BD00F013651040141270401C5
:100980004251040143191BE1040141510CE142C4ED
:100990003AF404013DB712D09D9AAB989490AD6A99
:1009A000C9EC14F00BD004013D853DB707D09D9AEA
:1009B000AB989490010EAD6EC9EC14F047D00401D1
:1009C000425104013B1908E104013B5104013A1969
:1009D00003E0C9EC14F03AD03AC400F0016A004ACE
:1009E000012AE56A800EE56E0150E56E0050E56E65
:1009F0001EEC0BF0006E040EE12600500401396F6E
:100A0000040142190FE136CF00F01F0E001404015B
:100A1000436F006E020E0024436F04013A5104013B
:100A20004327439F42C400F00401422B016A600E39
:100A30000026000E012200C0E9FF01C0EAFF36CF08
:100A4000EFFF4251800A02E10401426BE4CF03F060
:100A5000E4CF02F0E4CF01F0E4CF00F01200D9CFF0
:100A6000E5FFE1CFD9FF00C0E5FF01C0E5FF02C00F
:100A7000E5FF03C0E5FF04C0E5FF05C0E5FF06C0D4
:100A8000E5FF07C0E5FF08C0E5FF09C0E5FF0AC0B4
:100A9000E5FF0BC0E5FF0CC0E5FF0DC0E5FF0EC094
:100AA000E5FF0FC0E5FF020EDBCF00F0030EDBCF4A
:100AB00001F0040EDBCF02F0050EDBCF03F0060ED3
:100AC000DBCF04F0070EDBCF05F0080EDBCF06F01E
:100AD000200E076E086A06C009F00A6A0B6A0C6AE3
:100AE000E56AE56AE56A0950E56E0350E56E025075
:100AF000E56E0150E56E0050E56EB8EC06F00D6E47
:100B0000080EE126300E0D263A0E0D5C05E30D5061
:100B10000E6E270E0E240D6EFF0E07260822E00E25
:100B200007240E6E000E08200F6E0EC0E9FF0FC0E6
:100B3000EAFF0DC0EFFF0C50E56E0B50E56E0A505A
:100B4000E56E0950E56E0350E56E0250E56E01500A
:100B5000E56E0050E56E55EC07F0006EF3CF01F046
:100B6000F4CF02F0E9CF03F0080EE12600500110A7
:100B700002100310D8A4AFD707C000F008C001F0DE
:100B800004C002F005C003F000C004F001C005F08D
:100B9000004A012AE00E0426000E052204C0E9FFE7
:100BA00005C0EAFFEFCF04F002C0E9FF03C0EAFF8F
:100BB00004C0EFFF024A032A000E015C02E1200E8E
:100BC000005CE2E302C0E9FF03C0EAFF000EEF6A47
:100BD000E4CF0FF0E4CF0EF0E4CF0DF0E4CF0CF053
:100BE000E4CF0BF0E4CF0AF0E4CF09F0E4CF08F053
:100BF000E4CF07F0E4CF06F0E4CF05F0E4CF04F053
:100C0000E4CF03F0E4CF02F0E4CF01F0E4CF00F052
:100C1000E4CFD9FF120000C0E5FF01C0E5FF02C02C
:100C2000E5FF03C0E5FF04C0E5FF05C0E5FF06C022
:100C3000E5FF07C0E5FF72A28AD0A4A888D00F0103
:100C40002B51FD0A0DE12C51FF0A01E009D03DECCA
:100C500015F0736AFE0E0F012B6FFF0E2C6977D013
:100C60000F012B51FE0A11E12C51FF0A01E00DD0BA
:100C700001EC12F0F3CF01F00F01306F0150316F32
:100C8000FF0E0F012B692C6962D00F012B51FF0A57
:100C900030E12C51FF0A01E02CD001EC12F0006E83
:100CA000F3CF01F0F4CF02F0E9CF03F030CF04F03E
:100CB00031CF05F0E86A0F0131BFFF0E066E076EF7
:100CC0000450005E0550015A0650025A0750035A5C
:100CD000039E000E035C08E1000E025C05E1000EBD
:100CE000015C02E1090E005C32E30F012B6B2C6BFF
:100CF0002ED00F012B512C1108E141EC15F0736A35
:100D0000010E0F012B6F2C6B22D02BCF00F02CCFBC
:100D100001F00F012B3F01D02C2B000E0026030EFB
:100D2000012200C0E9FF01C0EAFFEFCF73FF0F010E
:100D30002B51800A0CE12C5101E009D0FD0E0F016E
:100D40002B6FFF0E2C690F01323F01D0332BE4CF04
:100D500007F0E4CF06F0E4CF05F0E4CF04F0E4CFF1
:100D600003F0E4CF02F0E4CF01F0E4CF00F0120092
:100D7000D9CFE5FFE1CFD9FF00C0E5FF01C0E5FF16
:100D800002C0E5FF03C0E5FF04C0E5FF05C0E5FFC5
:100D900006C0E5FF07C0E5FF08C0E5FF09C0E5FFA5
:100DA0000AC0E5FF020EDBCF00F0030EDBCF01F03F
:100DB000040EDBCF02F0050EDBCF03F0060EDBCF17
:100DC00004F0070EDBCF05F0080EDBCF06F0090EAE
:100DD000DBCF07F0086A045005100610071005E184
:100DE000E968F468F368E86847D0096A0750800B3F
:100DF000E8440A6E0A501BE1045004260536063604
:100E000007360750035C08E10650025C05E1055017
:100E1000015C02E10450005C06E2D8900732063221
:100E20000532043204D0092A09C008F0DFD7075080
:100E3000035C08E10650025C05E10550015C02E13B
:100E40000450005C08E30450005E0550015A06504F
:100E5000025A0750035AD89007320632053204323C
:100E600008C009F008060950E2E103C0E9FF02C02A
:100E7000F4FF01C0F3FF0050E4CF0AF0E4CF09F023
:100E8000E4CF08F0E4CF07F0E4CF06F0E4CF05F0BC
:100E9000E4CF04F0E4CF03F0E4CF02F0E4CF01F0BC
:100EA000E4CF00F0E4CFD9FF1200D9CFE5FFE1CFC6
:100EB000D9FF00C0E5FF01C0E5FF02C0E5FF03C0A8
:100EC000E5FF04C0E5FF05C0E5FF06C0E5FF07C07C
:100ED000E5FF08C0E5FF09C0E5FF0AC0E5FF0BC05C
:100EE000E5FF0CC0E5FF0DC0E5FF020EDBCF00F013
:100EF000030EDBCF01F0040EDBCF02F0050EDBCFDB
:100F000003F0060EDBCF04F0070EDBCF05F0080E72
:100F1000DBCF06F0090EDBCF07F0086A096A0A6A20
:100F20000B6A200E0C6E0350800BE8440D6E0050CF
:100F300000260136023603360850082609360A36DE
:100F40000B360D50D8A4088007500B5C08E1065002
:100F50000A5C05E10550095C02E10450085C09E304
:100F60000450085E0550095A06500A5A07500B5A99
:100F700000800C040D6E0DC00CF00D50D4E103C0C8
:100F8000E9FF02C0F4FF01C0F3FF0050E4CF0DF011
:100F9000E4CF0CF0E4CF0BF0E4CF0AF0E4CF09F09B
:100FA000E4CF08F0E4CF07F0E4CF06F0E4CF05F09B
:100FB000E4CF04F0E4CF03F0E4CF02F0E4CF01F09B
:100FC000E4CF00F0E4CFD9FF120000C0E5FF01C07C
:100FD000E5FF03C0E5FF04C0E5FF05C0E5FF06C06F
:100FE000E5FF07C0E5FF08C0E5FF09C0E5FF0AC04F
:100FF000E5FF0BC0E5FF2ECF00F02FCF01F00F0172
:101000002E3F01D02F2B0050E56EBBEC14F0E652C2
:10101000076E046A056A066A2ECF00F02FCF01F032
:101020000F012E3F01D02F2B0050E56EBBEC14F0CA
:10103000E6520B6A0A6E086A0850041205120A503A
:1010400006120B5007122ECF00F02FCF01F00F0128
:101050002E3F01D02F2B0050E56EBBEC14F0E65272
:10106000036E006A03C001F0E86A03BEFF0E086E5B
:10107000096E005004120150051208500612095062
:1010800007122ECF00F02FCF01F00F012E3F01D01D
:101090002F2B0050E56EBBEC14F0E652016A0412EF
:1010A000015005120612071207C0E9FF06C0F4FF3F
:1010B00005C0F3FF0450E4CF0BF0E4CF0AF0E4CF17
:1010C00009F0E4CF08F0E4CF07F0E4CF06F0E4CF76
:1010D00005F0E4CF04F0E4CF03F0E4CF01F0E4CF77
:1010E00000F0120000C0E5FF01C0E5FF02C0E5FF0F
:1010F00003C0E5FF04013B5104013A1901E163D04B
:101100003BC400F0002A009E016A600E0026000E1B
:10111000012200C0E9FF01C0EAFFEFCF45F41F0E36
:10112000040145173BC444F445510401442744518C
:10113000006E020E0024446F449F2BEC12F0006EF0
:10114000005003E1006A002A01D0006A2BEC12F083
:101150000401456F45C401F0800E011645C402F03C
:101160001F0E021602C003F002C045F4035003E153
:101170003AC43BF43BD000501EE0015022E02BEC7F
:1011800012F0006E04014551026E0204456F0050DA
:10119000420A17E000504E0A03E11EEC10F011D095
:1011A0000050460A03E1FDEC14F00BD00050490A50
:1011B00008E1FF0006D03BC446F40150D8B4D6EC99
:1011C0000EF044C43BF40F0125510F01261906E02F
:1011D00004013C5103E18BEC09F008D094B006D037
:1011E00004013C5103E1ACB2C9EC14F0E4CF03F0CC
:1011F000E4CF02F0E4CF01F0E4CF00F01200D9CF49
:10120000E5FFE1CFD9FF00C0E5FF01C0E5FF02C067
:10121000E5FF03C0E5FF04C0E5FF05C0E5FF06C02C
:10122000E5FF07C0E5FF020EDBCF00F0030EDBCFCA
:1012300001F0040EDBCF02F0050EDBCF03F002C09D
:1012400006F00650046E800A33E100C0E9FF01C0D9
:10125000F3FF025066EC13F0056EF3CF06F0F4CF07
:1012600007F003C0E5FF05C0E9FF06C0F3FF075024
:1012700008EC15F000C0E9FF01C0F3FF025066EC76
:1012800013F0056EF3CF06F0F4CF07F0052A02E362
:10129000064A072A05C0E5FF06C0F4FF07C0F6FFAF
:1012A00000C0E9FF01C0F3FF0250ACEC14F020D005
:1012B00004C000F000AA1CD0007A0050046E04E1C3
:1012C000035045EC15F014D00450010A04E103501A
:1012D00002EC00F00DD004500F0A04E10350A2EC20
:1012E00011F006D004500E0A03E1035055EC15F03E
:1012F000E4CF07F0E4CF06F0E4CF05F0E4CF04F04C
:10130000E4CF03F0E4CF02F0E4CF01F0E4CF00F04B
:10131000E4CFD9FF120000C0E5FF01C0E5FF02C025
:10132000E5FF03C0E5FFACA277D00CEC13F0006E34
:10133000005005E10F01266B0F01256B6DD026CF04
:1013400001F0005001260CEC13F0026E0006025072
:10135000230A1FE1010E005CD8A05CD00CEC13F056
:10136000036E690A03E171EC11F054D00350720A64
:1013700003E1C9EC14F04ED00350730A01E04AD0E7
:101380009480AB869D8A9D98AE50AE50AB98AB884A
:1013900041D00250430A05E00250420A01E03AD02F
:1013A00001D0008E04013E6B00C03FF400500401E8
:1013B000006F04013E2B0F012651011814E00CECC4
:1013C00013F0006E04013F27000E04013E25026E5B
:1013D000036A040E032202C0E9FF03C0EAFF00C053
:1013E000EFFF3E2BE8D7000E04013E25006E026A97
:1013F000040E022204013F1D036E032A00C0E9FF10
:1014000002C0EAFF03C0EFFF04013E2B3EC43CF4E0
:101410000F01346B01C026FFE4CF03F0E4CF02F0EC
:10142000E4CF01F0E4CF00F01200D9CFE5FFE1CF27
:10143000D9FF00C0E5FF01C0E5FF02C0E5FF03C022
:10144000E5FF04C0E5FF05C0E5FF06C0E5FF020EAD
:10145000DBCF00F0030EDBCF01F0040EDBCF02F098
:10146000050EDBCF03F003C004F0056A0350D8B4C7
:1014700053D000C0E9FF01C0F3FF02509BEC14F011
:10148000066E430A03E1010E056E038E0406002A70
:1014900002E3014A022A9D9AAB9894909D989EA8D7
:1014A000FED7AC80AD6A00009EA8FED7AC9003C00A
:1014B000ADFF00009EA8FED7055005E0420EAD6EC0
:1014C0000324056E05D0620EAD6E620E0324056E18
:1014D00004C003F0035015E000009EA8FED700C032
:1014E000E9FF01C0F3FF02509BEC14F0046E04C04E
:1014F000ADFF045005260306002A02E3014A022A32
:10150000E9D700009EA8FED7051CAD6EAD2A0000ED
:101510009EA8FED7C9EC14F0E4CF06F0E4CF05F0A6
:10152000E4CF04F0E4CF03F0E4CF02F0E4CF01F025
:10153000E4CF00F0E4CFD9FF1200D9CFE5FFE1CF2F
:10154000D9FF00C0E5FF01C0E5FF02C0E5FF03C011
:10155000E5FF04C0E5FF05C0E5FF06C0E5FF07C0E5
:10156000E5FF020EDBCF00F0030EDBCF01F0040E2F
:10157000DBCF02F0050EDBCF03F026CF27FF0F01F4
:1015800025510F01275F2751046E0404276F03C004
:1015900004F0056A030E0426D8B0052A27CF06F00A
:1015A000076A0750800FF36E0550800FF35C02E16D
:1015B0000450065C02E2E8682ED0020E035C02E2F0
:1015C000E86A29D003060350E56E5AEC10F0E652A3
:1015D000046A0350045C14E204500024056EE86AB7
:1015E0000120066EE86A022005C0E9FF06C0F3FF8D
:1015F0009BEC14F0042AE56E5AEC10F0E652E9D7A1
:1016000026CF27FF0F0125510F01275F2751006EBD
:101610000004276FE86AE4CF07F0E4CF06F0E4CFD8
:1016200005F0E4CF04F0E4CF03F0E4CF02F0E4CF20
:1016300001F0E4CF00F0E4CFD9FF1200D9CFE5FFED
:10164000E1CFD9FF00C0E5FF01C0E5FF02C0E5FF23
:1016500003C0E5FF04C0E5FF05C0E5FF06C0E5FFE8
:10166000020EDBCF00F0030EDBCF01F0040EDBCF68
:1016700002F0050EDBCF03F0D88001AED890046AEB
:101680000436045007E0011C066E001C056E054A76
:10169000062A04D000C005F001C006F0D88003AED1
:1016A000D89007E3031C016E021C006E004A012A59
:1016B00004D002C000F003C001F00150E56E0050FC
:1016C000E56E0650E56E0550E56E8BEC0DF0006E94
:1016D000F3CF01F0040EE12604500AE0011C036E72
:1016E000001C026E024A032A03C0F3FF025003D01B
:1016F00001C0F3FF0050E4CF06F0E4CF05F0E4CFE3
:1017000004F0E4CF03F0E4CF02F0E4CF01F0E4CF43
:1017100000F0E4CFD9FF1200D9CFE5FFE1CFD9FF28
:1017200000C0E5FF01C0E5FF02C0E5FF03C0E5FF23
:1017300004C0E5FF05C0E5FF020EDBCF00F0030E9D
:10174000DBCF01F0040EDBCF02F0050EDBCF03F0A0
:101750002ECF04F02FCF05F00F012E3F01D02F2BFD
:101760000350E56E0450E56EC8EC12F0E652E65206
:101770002ECF04F02FCF05F00F012E3F01D02F2BDD
:101780000250056EE56E0450E56EC8EC12F0E652AC
:10179000E6522ECF04F02FCF05F00F012E3F01D0DF
:1017A0002F2B0150E56E0450E56EC8EC12F0E652A6
:1017B000E6522ECF04F02FCF05F00F012E3F01D0BF
:1017C0002F2B0050E56E0450E56EC8EC12F0E65287
:1017D000E652E4CF05F0E4CF04F0E4CF03F0E4CF29
:1017E00002F0E4CF01F0E4CF00F0E4CFD9FF120023
:1017F000D8CFE5FFE0CFE5FFE56EF3CFE5FFF4CF0F
:10180000E5FFE9CFE5FFEACFE5FFFACFE5FFFBCF44
:10181000E5FF00C0E5FF01C0E5FFF6CFE5FFF6CF2D
:10182000E5FFF7CFE5FFF8CFE5FFF5CFE5FFE1CF27
:10183000E5FFE2CFE5FF0F0123510401366F0F01F1
:1018400024510401376FD650346FD750356FF2A44E
:1018500017D023CF00F024CF01F00050010F0F016B
:10186000236F000E0120246FF29423510401366F80
:101870000F0124510401376FD650346FD750356FA4
:10188000E4CFE2FFE4CFE1FFE4CFF5FFE4CFF8FFE0
:10189000E4CFF7FFE4CFF6FFE4CFF6FFE4CF01F0AB
:1018A000E4CF00F0E4CFFBFFE4CFFAFFE4CFEAFFA0
:1018B000E4CFE9FFE4CFF4FFE4CFF3FFE450E4CF5B
:1018C000E0FFE4CFD8FF1000D9CFE5FFE1CFD9FF8B
:1018D00000C0E5FF01C0E5FF02C0E5FF03C0E5FF72
:1018E00004C0E5FF05C0E5FF06C0E5FF020EDBCF43
:1018F00000F0030EDBCF01F0040EDBCF02F0040199
:10190000885119E1E5EC07F0036EF3CF04F0F4CF52
:1019100005F0E9CF06F003C0E5FF04C0F4FF05C001
:10192000F6FF06C0F7FF00C0E9FF01C0F3FF025059
:101930008AEC14F01ED004018851010A1AE100C09B
:10194000E9FF01C0F3FF0250ECEC12F0006EF3CFA0
:1019500001F0F4CF02F0E9CF03F00350E56E02503E
:10196000E56E0150E56E0050E56E8CEC0BF0040E58
:10197000E126E4CF06F0E4CF05F0E4CF04F0E4CFB5
:1019800003F0E4CF02F0E4CF01F0E4CF00F0E4CFC5
:10199000D9FF1200D9CFE5FFE1CFD9FF00C0E5FFA5
:1019A00001C0E5FF02C0E5FF03C0E5FF04C0E5FF9D
:1019B00005C0E5FF06C0E5FF020EDBCF00F0030E19
:1019C000DBCF01F0040EDBCF02F0050EDBCF03F01E
:1019D000060EDBCF04F0070EDBCF05F0080EDBCFE1
:1019E00006F0D88003AED89015E306500A0A12E13B
:1019F00004C0E9FF05C0EAFF2D0EEF6E044A052A78
:101A0000031E021E011E006C05E1012A03E1022AE9
:101A1000D8B4032A0650E56E0550E56E0450E56E15
:101A20000350E56E0250E56E0150E56E0050E56E24
:101A30002FEC05F0070EE126E4CF06F0E4CF05F029
:101A4000E4CF04F0E4CF03F0E4CF02F0E4CF01F000
:101A5000E4CF00F0E4CFD9FF120000C0E5FF01C0E1
:101A6000E5FF02C0E5FF03C0E5FF72EC08F00BECF8
:101A700006F001EC12F0006EF3CF01F0F4CF02F0AB
:101A8000E9CF03F004013051005E3151015A325167
:101A9000025A3351035A039E3F0E035C08E1FF0EC6
:101AA000025C05E1FF0E015C02E1FF0E005C2AE230
:101AB00001EC12F0F3CF01F0F4CF02F0E9CF03F024
:101AC000100F0401306F270E0120316F000E02202D
:101AD000326F000E0320336F90C400F091C401F008
:101AE0000401903F01D0912B0050190A02E10150EE
:101AF00001E008D00401906B916B82A202D08B921E
:101B000001D08B82E4CF03F0E4CF02F0E4CF01F008
:101B1000E4CF00F01200D9CFE5FFE1CFD9FF00C03C
:101B2000E5FF01C0E5FF02C0E5FF03C0E5FF04C01B
:101B3000E5FF05C0E5FF06C0E5FF020EDBCF00F0C4
:101B4000030EDBCF01F0040EDBCF02F0050EDBCF7E
:101B500003F0046A056A0350800BE844066E0650E1
:101B600011E10250022603360350015C02E10250EB
:101B7000005C04E2D8900332023204D0052A05C08A
:101B800004F0E9D70350015C02E10250005C04E379
:101B90000250005E0350015AD8900332023204C052
:101BA00005F004060550EEE101C0F3FF0050E4CF5C
:101BB00006F0E4CF05F0E4CF04F0E4CF03F0E4CF87
:101BC00002F0E4CF01F0E4CF00F0E4CFD9FF12003F
:101BD00000C0E5FF01C0E5FF02C0E5FF03C0E5FF6F
:101BE0003BC400F0016A46C402F0036A0250005E82
:101BF0000350015AE56A800EE56E0150E56E005013
:101C0000E56E1EEC0BF0006E040EE126000646C4E5
:101C100001F0430EA2EC11F0200EA2EC11F00050E6
:101C200020E0600E0124026E036A000E032202C04F
:101C3000E9FF03C0EAFFEFCF02F0E56A0250E56E6C
:101C4000000EE56E290EE56EAA0EE56E62EC0FF051
:101C5000050EE126012A0150800A01E1016A000611
:101C6000DED7E4CF03F0E4CF02F0E4CF01F0E4CF1D
:101C700000F01200D9CFE5FFE1CFD9FF00C0E5FFAA
:101C800001C0E5FF02C0E5FF03C0E5FF04C0E5FFBA
:101C9000020EDBCF00F0030EDBCF01F0040EDBCF32
:101CA00002F00401885111E10BEC11F0036EF3CF47
:101CB00004F003C0E5FF04C0F4FF00C0E9FF01C069
:101CC000F3FF0250E5EC14F016D004018851010A2C
:101CD00012E100C0E9FF01C0F3FF025025EC14F04F
:101CE000006EF3CF01F00150E56E0050E56EE1ECBF
:101CF0000FF0E652E652E4CF04F0E4CF03F0E4CF75
:101D000002F0E4CF01F0E4CF00F0E4CFD9FF1200FD
:101D1000560EF66E2A0EF76E000EF86E0900F5509C
:101D2000056E0900F550066E04E1056702D0D5EF97
:101D30000EF00900F550006E0900F550016E090023
:101D4000F550026E09000900F550E96E0900F550E2
:101D5000EA6E090009000900F550036E0900F5500C
:101D6000046E09000900F6CF07F0F7CF08F0F8CFAE
:101D700009F000C0F6FF01C0F7FF02C0F8FF0350F2
:101D800002E1045007E00900F550EE6E0306F8E2A8
:101D90000406F9D707C0F6FF08C0F7FF09C0F8FF2F
:101DA000050601E2060694EF0EF0120000C0E5FF02
:101DB00001C0E5FF02C0E5FF03C0E5FF2BEC12F018
:101DC000006E1E0A04E000501F0A17E031D02BEC11
:101DD00012F0006A016E2BEC12F0036A0026035029
:101DE00001222BEC12F0E56E0150E56E0050E56E1D
:101DF000D2EC11F0030EE1261BD02BEC12F0006E9A
:101E00004FEC15F0016EFE0E012601C002F0010636
:101E100002500EE02BEC12F000C003F0E56EE56A14
:101E20000350E56ED2EC11F0030EE126002AEDD747
:101E3000E4CF03F0E4CF02F0E4CF01F0E4CF00F010
:101E40001200D8CFE5FFE0CFE5FFE56EF3CFE5FF69
:101E5000F4CFE5FFE9CFE5FFEACFE5FFFACFE5FFF5
:101E6000FBCFE5FFF6CFE5FFF6CFE5FFF7CFE5FFC8
:101E7000F8CFE5FFF5CFE5FFE1CFE5FFE2CFE5FFE6
:101E80000EEC04F0E4CFE2FFE4CFE1FFE4CFF5FF96
:101E9000E4CFF8FFE4CFF7FFE4CFF6FFE4CFF6FF9F
:101EA000E4CFFBFFE4CFFAFFE4CFEAFFE4CFE9FFA2
:101EB000E4CFF4FFE4CFF3FFE450E4CFE0FFE4CF5E
:101EC000D8FF1000D9CFE5FFE1CFD9FF00C0E5FF73
:101ED00001C0E5FF02C0E5FF020ED924006E000E2E
:101EE000DA20016E800E026E030E0026000E012223
:101EF00002220250E56E0150E56E0050E56E040EC0
:101F0000DBCFE5FF030EDBCFE5FF020EDBCFE5FF06
:101F100004018751E56E8651E56E8551E56E0EEC44
:101F200000F0006EF3CF01F0090EE12601C0F3FFCF
:101F30000050E4CF02F0E4CF01F0E4CF00F0E4CFB2
:101F4000D9FF1200D9CFE5FFE1CFD9FF00C0E5FFEF
:101F500001C0E5FF02C0E5FF03C0E5FF020EDBCFD5
:101F600000F0030EDBCF01F0040EDBCF02F0040122
:101F700088510DE1F9EC13F0036E03C0E5FF00C0DA
:101F8000E9FF01C0F3FF025008EC15F00FD0040187
:101F90008851010A0BE100C0E9FF01C0F3FF0250C4
:101FA0009BEC14F0E56EA2EC12F0E652E4CF03F0E5
:101FB000E4CF02F0E4CF01F0E4CF00F0E4CFD9FFAA
:101FC0001200D9CFE5FFE1CFD9FF00C0E5FF01C086
:101FD000E5FF02C0E5FF03C0E5FF020EDBCF00F026
:101FE000030EDBCF01F02ECF02F02FCF03F00F0155
:101FF0002E3F01D02F2B0150E56E0250E56EC8EC4C
:1020000012F0E652E6522ECF02F02FCF03F00F016E
:102010002E3F01D02F2B0050E56E0250E56EC8EC2C
:1020200012F0E652E652E4CF03F0E4CF02F0E4CF40
:1020300001F0E4CF00F0E4CFD9FF120000C0E5FFCB
:1020400001C0E5FF02C0E5FF2BEC12F0006E2BECA7
:1020500012F0016ED00E00260A0E005C05E300505F
:10206000026EF90E0224006ED00E01260A0E015CEB
:1020700005E30150026EF90E0224016E080E005CA9
:1020800012E2100E015CD8B00ED00038F00B012423
:10209000006ED1EC10F0016E015005E10050E56ECC
:1020A0009BEC13F0E652E4CF02F0E4CF01F0E4CF72
:1020B00000F01200D9CFE5FFE1CFD9FF00C0E5FF66
:1020C00001C0E5FF02C0E5FF03C0E5FF04C0E5FF76
:1020D000020EDBCF00F025CF01F0026A014A022A8E
:1020E00026CF03F0046A0150031803E102500418DC
:1020F00001E001D00ED0000E0F012525016E026A0D
:10210000010E022201C0E9FF02C0EAFF00C0EFFF9A
:10211000252BE4CF04F0E4CF03F0E4CF02F0E4CFCA
:1021200001F0E4CF00F0E4CFD9FF1200D9CFE5FFF2
:10213000E1CFD9FF00C0E5FF01C0E5FF02C0E5FF28
:1021400003C0E5FF020EDBCF00F0016A46C402F0D7
:10215000036A0250002603500122E56A800EE56EF4
:102160000150E56E0050E56E1EEC0BF0006EF3CFF3
:1021700001F0040EE126600E0026000E012200C0D0
:10218000E9FF01C0EAFFEFCF00F00050E4CF03F019
:10219000E4CF02F0E4CF01F0E4CF00F0E4CFD9FFC8
:1021A000120000C0E5FF01C0E5FF02C0E5FF010E1F
:1021B000006E2BEC12F0016E01C002F0015023E022
:1021C0000050E56EBBEC14F0016EE652015010E1D8
:1021D0000A0E005C0BE20A0E006EE56EBBEC14F01A
:1021E000016EE652015004E1E8680ED0E8680CD0B8
:1021F0000150021802E0E86807D0002A1B0E005CBC
:10220000D8E3E86801D0E86AE4CF02F0E4CF01F057
:10221000E4CF00F0120000C0E5FF01C0E5FF02C0FE
:10222000E5FF03C0E5FF2ECF00F02FCF01F00F0137
:102230002E3F01D02F2B0050E56EBBEC14F0E65280
:10224000036E026A2ECF00F02FCF01F00F012E3F58
:1022500001D02F2B0050E56EBBEC14F0E652016A62
:1022600002120150031203C0F3FF0250E4CF03F047
:10227000E4CF02F0E4CF01F0E4CF00F0120000C0A0
:10228000E5FF01C0E5FF02C0E5FF03C0E5FF006A0E
:10229000016A000E0024026E030E0120036E02C0CC
:1022A000E9FF03C0EAFFEF6A004A012A0150800FEC
:1022B000800F02E1800E005CECE38A8C939C7086B8
:1022C000728A7284728C7280718E0F01326B336BE2
:1022D000E4CF03F0E4CF02F0E4CF01F0E4CF00F06C
:1022E00012000F01256B0F01266B0F0127699480E7
:1022F0008B909480B06A3F0EAF6EB886AC8AAC8487
:10230000AC8CAC90AB8CAB8E04013D6B0F01356B8C
:1023100004013A6B04013B6B04013C6B000EE56A5F
:10232000BBEC14F00F01296FE6529F989F9A010EA3
:102330000F01286F0401856B866B2F0E876FC9EC28
:1023400014F0120000C0E5FF01C0E5FF02C0E5FF88
:10235000006E000E0F012A25016E026A0F0E022286
:1023600001C0E9FF02C0EAFF00C0EFFF220E2A5DB4
:10237000D8A02A2B00500A0A0EE10F012A51E56E5F
:10238000800EE56E0F0EE56E000EE56E9DEC0AF018
:10239000040EE1262A6BE4CF02F0E4CF01F0E4CF93
:1023A00000F01200D9CFE5FFE1CFD9FF00C0E5FF73
:1023B00001C0E5FF02C0E5FF020EDBCF00F0030E17
:1023C000DBCF01F0040EDBCF02F00050011010E073
:1023D000000E015C02E1800E005C0AE2000E0026A5
:1023E000030E012200C0E9FF01C0EAFF02C0EFFFB7
:1023F000E4CF02F0E4CF01F0E4CF00F0E4CFD9FF66
:1024000012000F0123510401836F0F0124510401B5
:10241000846FD650816FD750826F83510F0123197B
:1024200005E1040184510F0124190CE00F0123512F
:102430000401836F0F0124510401846FD650816F12
:10244000D750826F84C4E9FF83C4F4FF82C4F3FFD2
:1024500004018151120000C0E5FF01C0E5FF040145
:102460003B510401441905E004013B5104013A19B0
:1024700002E1E86A15D03BC400F004013B2B016A7D
:10248000600E0026000E012200C0E9FF01C0EAFF35
:10249000EFCF00F03B51800A02E104013B6B00509A
:1024A000E4CF01F0E4CF00F0120000C0E5FF49ECFA
:1024B00015F00401896B806B8983006A89B3002A57
:1024C0000050010BE844F46E8051FD0BF410806F56
:1024D000D58ED59CD59AD588D596D594D582D580DC
:1024E000F28AF184D08EF28EF28CBA80FF0EBB6835
:1024F000BA84E4CF00F0120001C0E5FF02C0E5FF9E
:1025000003C0E5FF38EC15F094923FEC11F001ECBC
:1025100012F0F3CF01F0F4CF02F0E9CF03F0100F87
:102520000401306F270E0120316F000E0220326F40
:10253000000E0320336FE4CF03F0E4CF02F0E4CFCA
:1025400001F01200D9CFE5FFE1CFD9FF00C0E5FFD0
:1025500001C0E5FF02C0E5FF020EDBCF00F02ECF89
:1025600001F02FCF02F00F012E3F01D02F2B005092
:10257000E56E0150E56EC8EC12F0E652E652E4CF8B
:1025800002F0E4CF01F0E4CF00F0E4CFD9FF120075
:10259000D9CFE5FFE1CFD9FF00C0E5FF020EDBCFC9
:1025A00000F0030EDBCFA8FF00C0A9FFA69EA69CEB
:1025B000A684F29EF29C550EA76EAA0EA76EA68266
:1025C000A6A202D00000FCD7A694F28EF28CE4CF33
:1025D00000F0E4CFD9FF1200E8AE0AD0F3CFEAFF53
:1025E000EE50EECFF3FFEECFF4FFEECFE9FF120097
:1025F000E8BC5CEF15F0E9CFF6FFF3CFF7FFF86E1C
:102600000900F5500900F5CFF3FF0900F5CFF4FFFD
:102610000900F5CFE9FF120000C0E5FF01C0E5FFAA
:102620000F0125510F01261902E1E86A0FD0000EB3
:102630000F012625006E016A010E012200C0E9FF8C
:1026400001C0EAFFEFCF00F0262B0050E4CF01F0ED
:10265000E4CF00F01200F2CFEAFFF29EA69EA69C05
:10266000A684E9CFA9FFF3CFAAFFE4CFA8FF13EC1C
:1026700015F0F4CFA8FF13EC15F0F6CFA8FF13EC7C
:1026800015F0F7CFA8FF13EC15F0A694EABEF28E72
:102690001200F2CFF6FFF29EA69EA69CE9CFA9FFFC
:1026A000F3CFAAFFA680A850A94AAA2AA680A8CF3D
:1026B000F3FFA94AAA2AA680A8CFF4FFA94AAA2A0A
:1026C000A680A8CFEAFFF6BEF28E1200E8AE08D0D0
:1026D000F3CFEAFFEE50EECFF3FFEECFF4FF1200A0
:1026E000E8BC64EF15F0E9CFF6FFF3CFF7FFF86E23
:1026F0000900F5500900F5CFF3FF0900F5CFF4FF0D
:102700001200F2CFEAFFF29EA69EA69CA684E9CF15
:10271000A9FFF3CFAAFFE4CFA8FF13EC15F0F4CF85
:10272000A8FF13EC15F0F6CFA8FF13EC15F0A69454
:10273000EABEF28E1200D9CFE5FFE1CFD9FF00C08B
:10274000E5FF020EDBCF00F000C029FF0050E56E70
:10275000000EE56AC8EC12F0E652E652E4CF00F053
:10276000E4CFD9FF1200F2CFF6FFF29EA69EA69C00
:10277000E9CFA9FFF3CFAAFFA680A850A94AAA2AA9
:10278000A680A8CFF3FFA94AAA2AA680A8CFF4FF63
:10279000F6BEF28E120000C0E5FF01C0E5FF600E3C
:1027A00004013B25006E016A000E012200C0E9FF12
:1027B00001C0EAFFEFCF00F00050E4CF01F0E4CF1A
:1027C00000F01200D9CFE5FFE1CFD9FF00C0E5FF4F
:1027D000020EDBCF00F0610E005C05E37B0E005CB7
:1027E00002E2010E01D0E86AE4CF00F0E4CFD9FFA5
:1027F000120000C0E5FF01C0E5FF2ECF00F02FCF93
:1028000001F00F012E3F01D02F2B0050E56EBBECE5
:1028100014F0E652E4CF01F0E4CF00F01200D9CF7B
:10282000E5FFE1CFD9FF00C0E5FF020EDBCF00F0EE
:1028300000C028FF005004E1C9EC14F09D9A9D9857
:10284000E4CF00F0E4CFD9FF1200E8AE06D0F3CF1A
:10285000EAFFEE50EECFF3FF1200E8BC5AEF15F09E
:10286000E9CFF6FFF3CFF7FFF86E0900F550090046
:10287000F5CFF3FF1200F2CFEAFFF29EA69EA69CD0
:10288000A684E9CFA9FFF3CFAAFFE4CFA8FF13ECFA
:1028900015F0F4CFA8FF13EC15F0A694EABEF28E63
:1028A000120012EEFFF022EEFFF0F86AA68EA69C50
:1028B000E9680E0EEA6E0068000EED6A0050FDE158
:1028C00088EC0EF032EC15F0FFD7F2CFF6FFF29E57
:1028D000A69EA69CE9CFA9FFF3CFAAFFA680A85089
:1028E000A94AAA2AA680A8CFF3FFF6BEF28E12004C
:1028F000F2CFEAFFF29EA69EA69CA684E9CFA9FF8E
:10290000F3CFAAFFE4CFA8FF13EC15F0A694EABE1C
:10291000F28E1200E8AE0BD0F3CFEAFFE4CFEEFF69
:10292000F4CFEEFFF6CFEEFFF7CFEEFF1200E8BCDC
:102930005EEF15F01200E8AE04D0F3CFEAFFEE50E0
:102940001200E8BC58EF15F0E9CFF6FFF3CFF7FF20
:10295000F86E0900F5501200E8AE09D0F3CFEAFF97
:10296000E4CFEEFFF4CFEEFFF6CFEEFF1200E8BCAF
:1029700066EF15F01200D9CFE5FFE1CFD9FF020EC7
:10298000DBCFA9FFA69CA69EA680A850E4CFD9FFC6
:102990001200ACA2FED79480AE500000AE50AB98AF
:1029A000AB88AB869D8A9D98120025642000F2CFEB
:1029B000F6FFF29EA69EA69CE9CFA9FFF3CFAAFF41
:1029C000A680A850F6BEF28E1200E8AE07D0F3CF74
:1029D000EAFFE4CFEEFFF4CFEEFF1200E8BC62EFB7
:1029E00015F01200700ED36E9B8CFF0E92689368E8
:1029F00094689668626AF19E120000C0E5FFD1EC0F
:102A000010F0006E005001E1FF00E4CF00F0120072
:102A1000E8AE05D0F3CFEAFFE4CFEEFF1200E8BC4A
:102A200060EF15F01200550EA76EAA0EA76EA682D3
:102A3000A6B2FED7A94AAA2A010E0401886F1C0E6D
:102A40000F012E6F2F6B12000401886B1C0E0F01FB
:102A50002E6F2F6B120001000C000000230F0000EE
:102A60000B0000007CEC12F02DEC0DF0FDD71200F5
:102A700055EC12F071EC11F01200766AA50E756E2D
:102A80001200766A3F0E756E1200ACA2FED7AD6ED4
:102A90001200F2EC14F0120004013B511200040188
:102AA000455112000F0128511200E8CF7FFF12009C
:102AB000D7EF14F065EF14F049EF13F02BEF13F09C
:102AC00078EF14F03BEF14F0B3EF13F081EF13F055
:020000040030CA
:010006008574
:00000001FF
