:020000040000FA
:1000000000EF14F0C96E1200CEEF0DF000000000FA
:10001000FF000000FDFF000076EF12F0D9CFE5FFF2
:10002000E1CFD9FF00C0E5FF01C0E5FF02C0E5FF59
:1000300003C0E5FF04C0E5FF05C0E5FF06C0E5FF1E
:1000400007C0E5FF08C0E5FF09C0E5FF0AC0E5FFFE
:100050000BC0E5FF0CC0E5FF0DC0E5FF0EC0E5FFDE
:100060000FC0E5FF10C0E5FF11C0E5FF12C0E5FFBE
:1000700013C0E5FF14C0E5FF15C0E5FF16C0E5FF9E
:1000800017C0E5FF18C0E5FF19C0E5FF1AC0E5FF7E
:100090001BC0E5FF1CC0E5FF1DC0E5FF1EC0E5FF5E
:1000A000020EDBCF00F0030EDBCF01F0040EDBCF3E
:1000B00002F0050EDBCF03F0060EDBCF04F0070ED7
:1000C000DBCF05F0080EDBCF06F0090EDBCF07F023
:1000D0000A0EDBCF08F0096A0A6A02C00DF00D5063
:1000E000800A0DE1025004018F6F01508E6F0050A5
:1000F0008D6F040E016E8D0E006E800E026E03C0B9
:10010000E9FF04C0F3FF05504AEC14F00B6E0B50EE
:10011000D8B4C4EF03F00B50250A02E0ABEF03F0B4
:100120000C6A0D6A0E6A0F6A106A0A0E116E126A64
:10013000136A146A200E156E1668176A2B0E186E55
:10014000032A02E3044A052A03C0E9FF04C0F3FFBF
:1001500005504AEC14F0196E250A13E11950E56EAA
:100160000250E56E0150E56E0050E56EFFEC08F0C0
:10017000040EE126094A0A2A032A02E3044A052A50
:10018000BED71950300A06E1300E156E032A02E37D
:10019000044A052A03C0E9FF04C0F3FF05504AECF6
:1001A00014F02D0A06E1010E146E032A02E3044A3C
:1001B000052A03C0E9FF04C0F3FF05504AEC14F020
:1001C000200A08E1010E176E200E186E032A02E3C2
:1001D000044A052A03C0E9FF04C0F3FF05504AECB6
:1001E00014F02B0A06E1010E176E032A02E3044AFB
:1001F000052A03C0E9FF04C0F3FF05504AEC14F0E0
:10020000196E310E195C2BE33A0E195C28E203C01B
:1002100019F004C01AF005C01BF019C0E9FF1AC09C
:10022000F3FF1B504AEC14F01C6E300E1C5C11E303
:100230003A0E1C5C0EE213500A0DF3CF1DF01C5059
:100240001D26D00E1D24136E192A02E31A4A1B2AFA
:10025000E4D719C003F01AC004F01BC005F003C0B6
:10026000E9FF04C0F3FF05504AEC14F02E0A2DE11B
:10027000032A02E3044A052A166A03C019F004C0DF
:100280001AF005C01BF019C0E9FF1AC0F3FF1B509C
:100290004AEC14F01C6E300E1C5C11E33A0E1C5C30
:1002A0000EE216500A0DF3CF1DF01C501D26D00E85
:1002B0001D24166E192A02E31A4A1B2AE4D719C014
:1002C00003F01AC004F01BC005F003C0E9FF04C02E
:1002D000F3FF05504AEC14F0196E6C0A07E1010EA9
:1002E0000C6E032A02E3044A052A09D01950680A51
:1002F00006E1010E0E6E032A02E3044A052A03C03A
:10030000E9FF04C0F3FF05504AEC14F0750A06E15A
:10031000010E106E032A02E3044A052A03C0E9FF16
:1003200004C0F3FF05504AEC14F0196E730A05E19E
:10033000010E0D6E200E156E3FD01950780A03E1A4
:10034000100E116E39D01950580A05E1100E116EB9
:10035000010E126E31D01950630A02E1116A2CD0DD
:1003600019506F0A03E1080E116E26D01950660A63
:1003700003E1010E0F6E20D01950640A1DE01950E0
:10038000690A1AE0105005E0FF0E03260422052238
:1003900013D01950E56E0250E56E0150E56E005025
:1003A000E56EFFEC08F0040EE126094A0A2A032A4A
:1003B00002E3044A052AA3D60D5021E00650030F9C
:1003C0000D6E000E0720196E000E08201A6E0DC06B
:1003D00006F019C007F01AC008F0FD0E0D26FF0E3A
:1003E00019221A220DC0E9FF19C0F3FF1A5015ECAB
:1003F00013F00D6EF3CF19F0F4CF1AF0FDD00F50BB
:100400000DE0000E1A6E080E196E100E0D6E040E21
:100410000626000E072208221668EED016680C5039
:1004200023E00650040F0C6E000E07200F6E000E26
:1004300008201B6E0CC006F00FC007F01BC008F0B0
:10044000FC0E0C26FF0E0F221B220CC0E9FF0FC072
:10045000F3FF1B509BEC12F00C6EF3CF0FF0F4CFB8
:100460001BF0E9CF1CF067D00E502FE00650020FB2
:100470000E6E000E07201D6E000E08201E6E0EC0B0
:1004800006F01DC007F01EC008F0FE0E0E26FF0E7F
:100490001D221E220EC0E9FF1DC0F3FF1E50D4EC2A
:1004A00013F00E6E0EC00CF00F6A1B6A1C6A11501E
:1004B0000A0A03E11050D8B43ED00C500E6E0EC0A4
:1004C0000CF00F6A1B6A1C6A36D00650020F0E6EC3
:1004D000000E07201D6E000E08201E6E0EC006F0D6
:1004E0001DC007F01EC008F0FE0E0E26FF0E1D22D6
:1004F0001E220EC0E9FF1DC0F3FF1E50D4EC13F006
:100500000E6EF3CF1DF00EC00CF01DC00FF0E86AA8
:100510001DBEFF0E1B6E1C6E11500A0A02E1105028
:100520000AE00C500E6E0F501D6E0EC00CF01DC078
:100530000FF01B6A1C6A040E196E240E0D6E800EDD
:100540001A6E1150D8B440D0105013E01150E56E1F
:10055000040EE56E240EE56E1C50E56E1B50E56E34
:100560000F50E56E0C50E56E2FEC05F0070EE126FE
:1005700012D01150E56E040EE56E240EE56E1C508F
:10058000E56E1B50E56E0F50E56E0C50E56E5EECAF
:100590000CF0070EE12617502FE00DC0E9FF19C03F
:1005A000F3FF1A504AEC14F02D0A26E0FF0E0D2638
:1005B00019221A2218C0E5FF0DC0E9FF19C0F3FF88
:1005C0001A50B7EC14F018D00CC0E5FF0DC0E9FFCD
:1005D00019C0F3FF1A50B7EC14F00D50010F0C6E58
:1005E000000E19200E6E000E1A20E56A0CC0E9FFFD
:1005F0000EC0F3FFB7EC14F00DC00CF019C00EF0F4
:100600001AC00FF013C010F0105010E00CC0E9FF3A
:100610000EC0F3FF0F504AEC14F0176E175006E0AF
:100620000C2A02E30E4A0F2A1006EED710C013F070
:1006300014501EE109C00CF00AC00EF010C00FF0FB
:100640000F5010E01550E56E0250E56E0150E56E5A
:100650000050E56EFFEC08F0040EE1260C4A0E2A6D
:100660000F06EED70CC009F00EC00AF00FC013F051
:1006700016C00CF00DC00DF019C00EF01AC00FF02E
:1006800009C010F00AC015F00DC0E9FF0EC0F3FF5D
:100690000F504AEC14F0166E1650D8B43ED00CC071
:1006A00016F0176A161E171E1650171005E00CC01C
:1006B00016F00C06165031E00DC0E9FF0EC0F3FF36
:1006C0000F504AEC14F0116E125010E01150E56E0C
:1006D00091EC13F0166EE652165004E0DF0E111482
:1006E000166E02D011C016F016C011F01150E56E52
:1006F0000250E56E0150E56E0050E56EFFEC08F02B
:10070000040EE1260D2A02E30E4A0F2A104A152A8A
:100710001350D8B4B9D71306B7D710C009F015C015
:100720000AF014502BE010C00CF015C00DF013C0EF
:100730000EF00E501FE0200EE56E0250E56E0150E7
:10074000E56E0050E56EFFEC08F0040EE1260C4A61
:100750000D2A0E06EED70B50E56E0250E56E0150E5
:10076000E56E0050E56EFFEC08F0040EE126094A44
:100770000A2A04D00CC009F00DC00AF0032A02E3D3
:10078000044A052A7FEF00F00AC0F3FF0950E4CFC6
:100790001EF0E4CF1DF0E4CF1CF0E4CF1BF0E4CF5B
:1007A0001AF0E4CF19F0E4CF18F0E4CF17F0E4CF5B
:1007B00016F0E4CF15F0E4CF14F0E4CF13F0E4CF5B
:1007C00012F0E4CF11F0E4CF10F0E4CF0FF0E4CF5B
:1007D0000EF0E4CF0DF0E4CF0CF0E4CF0BF0E4CF5B
:1007E0000AF0E4CF09F0E4CF08F0E4CF07F0E4CF5B
:1007F00006F0E4CF05F0E4CF04F0E4CF03F0E4CF5B
:1008000002F0E4CF01F0E4CF00F0E4CFD9FF120012
:100810003C4E4F20464C4F41543E000000C0E5FF87
:1008200001C0E5FF02C0E5FF03C0E5FF0F0128514D
:10083000D8B40CD19DA81DD09EA81BD00301C551D2
:100840000301C31905E178EC14F00301C36BFED07A
:10085000000E0301C525006E016A040E012200C0CE
:10086000E9FF01C0EAFFEFCF36FFC52B36CFADFF62
:10087000EDD09DAAEBD09EAAE9D0ABA205D0030192
:10088000C48178EC14F0E2D0ABA405D00301C4839A
:1008900078EC14F0DBD0ABA048D0AECF36FF29CF38
:1008A00000F0016A008E36CF02F0036A0250001891
:1008B00003E10350011801E004D00301C489AB96A1
:1008C000C5D00F01365104E036510F01291929E135
:1008D0000301C499AB960F01365103E00301C4979D
:1008E00002D00301C48736CFC8F3C1C3C9F30301E3
:1008F000C151006E00040301CA6F600E0301C925D7
:10090000006E016A000E012200C0E9FF01C0EAFF8B
:1009100036CFEFFFC92BC951800A02E10301C96B31
:1009200095D00301C499AB8691D0AECF36FF0301B9
:10093000C4A921D029CF00F0016A008E36CF02F081
:10094000036A0250001803E10350011801E011D0BE
:100950009D9AAB9894900301C35104E1AD6A78EC81
:1009600014F007D000C4ADFF010E0301C56F9D88D0
:100970006DD0AB866BD00F0136510301C827030140
:10098000C9510301CA191BE10301C8510CE1C9C3D4
:10099000C1F30301C4B712D09D9AAB989490AD6A8D
:1009A00078EC14F00BD00301C485C4B707D09D9A2E
:1009B000AB989490010EAD6E78EC14F047D0030123
:1009C000C9510301C21908E10301C2510301C11950
:1009D00003E078EC14F03AD0C1C300F0016A004A99
:1009E000012AE56A800EE56E0150E56E0050E56E65
:1009F0001EEC0BF0006E040EE12600500301C06FE8
:100A00000301C9190FE136CF00F01F0E00140301D6
:100A1000CA6F006E020E0024CA6F0301C1510301A8
:100A2000CA27CA9FC9C300F00301C92B016A600E1F
:100A30000026000E012200C0E9FF01C0EAFF36CF08
:100A4000EFFFC951800A02E10301C96BE4CF03F053
:100A5000E4CF02F0E4CF01F0E4CF00F01200D9CFF0
:100A6000E5FFE1CFD9FF00C0E5FF01C0E5FF02C00F
:100A7000E5FF03C0E5FF04C0E5FF05C0E5FF06C0D4
:100A8000E5FF07C0E5FF08C0E5FF09C0E5FF0AC0B4
:100A9000E5FF0BC0E5FF0CC0E5FF0DC0E5FF0EC094
:100AA000E5FF0FC0E5FF020EDBCF00F0030EDBCF4A
:100AB00001F0040EDBCF02F0050EDBCF03F0060ED3
:100AC000DBCF04F0070EDBCF05F0080EDBCF06F01E
:100AD000200E076E086A06C009F00A6A0B6A0C6AE3
:100AE000E56AE56AE56A0950E56E0350E56E025075
:100AF000E56E0150E56E0050E56EB8EC06F00D6E47
:100B0000080EE126300E0D263A0E0D5C05E30D5061
:100B10000E6E270E0E240D6EFF0E07260822E00E25
:100B200007240E6E000E08200F6E0EC0E9FF0FC0E6
:100B3000EAFF0DC0EFFF0C50E56E0B50E56E0A505A
:100B4000E56E0950E56E0350E56E0250E56E01500A
:100B5000E56E0050E56E55EC07F0006EF3CF01F046
:100B6000F4CF02F0E9CF03F0080EE12600500110A7
:100B700002100310D8A4AFD707C000F008C001F0DE
:100B800004C002F005C003F000C004F001C005F08D
:100B9000004A012AE00E0426000E052204C0E9FFE7
:100BA00005C0EAFFEFCF04F002C0E9FF03C0EAFF8F
:100BB00004C0EFFF024A032A000E015C02E1200E8E
:100BC000005CE2E302C0E9FF03C0EAFF000EEF6A47
:100BD000E4CF0FF0E4CF0EF0E4CF0DF0E4CF0CF053
:100BE000E4CF0BF0E4CF0AF0E4CF09F0E4CF08F053
:100BF000E4CF07F0E4CF06F0E4CF05F0E4CF04F053
:100C0000E4CF03F0E4CF02F0E4CF01F0E4CF00F052
:100C1000E4CFD9FF120000C0E5FF01C0E5FF02C02C
:100C2000E5FF03C0E5FF04C0E5FF05C0E5FF06C022
:100C3000E5FF07C0E5FF72A28AD0A4A888D00F0103
:100C40002B51FD0A0DE12C51FF0A01E009D0ECEC1B
:100C500014F0736AFE0E0F012B6FFF0E2C6977D014
:100C60000F012B51FE0A11E12C51FF0A01E00DD0BA
:100C70005FEC11F0F3CF01F00F01306F0150316FD5
:100C8000FF0E0F012B692C6962D00F012B51FF0A57
:100C900030E12C51FF0A01E02CD05FEC11F0006E26
:100CA000F3CF01F0F4CF02F0E9CF03F030CF04F03E
:100CB00031CF05F0E86A0F0131BFFF0E066E076EF7
:100CC0000450005E0550015A0650025A0750035A5C
:100CD000039E000E035C08E1000E025C05E1000EBD
:100CE000015C02E1090E005C32E30F012B6B2C6BFF
:100CF0002ED00F012B512C1108E1F0EC14F0736A87
:100D0000010E0F012B6F2C6B22D02BCF00F02CCFBC
:100D100001F00F012B3F01D02C2B000E0026030EFB
:100D2000012200C0E9FF01C0EAFFEFCF73FF0F010E
:100D30002B51C00A0CE12C5101E009D0FD0E0F012E
:100D40002B6FFF0E2C690F01323F01D0332BE4CF04
:100D500007F0E4CF06F0E4CF05F0E4CF04F0E4CFF1
:100D600003F0E4CF02F0E4CF01F0E4CF00F0120092
:100D7000D9CFE5FFE1CFD9FF00C0E5FF01C0E5FF16
:100D800002C0E5FF03C0E5FF04C0E5FF05C0E5FFC5
:100D900006C0E5FF07C0E5FF08C0E5FF09C0E5FFA5
:100DA0000AC0E5FF020EDBCF00F0030EDBCF01F03F
:100DB000040EDBCF02F0050EDBCF03F0060EDBCF17
:100DC00004F0070EDBCF05F0080EDBCF06F0090EAE
:100DD000DBCF07F0086A045005100610071005E184
:100DE000E968F468F368E86847D0096A0750800B3F
:100DF000E8440A6E0A501BE1045004260536063604
:100E000007360750035C08E10650025C05E1055017
:100E1000015C02E10450005C06E2D8900732063221
:100E20000532043204D0092A09C008F0DFD7075080
:100E3000035C08E10650025C05E10550015C02E13B
:100E40000450005C08E30450005E0550015A06504F
:100E5000025A0750035AD89007320632053204323C
:100E600008C009F008060950E2E103C0E9FF02C02A
:100E7000F4FF01C0F3FF0050E4CF0AF0E4CF09F023
:100E8000E4CF08F0E4CF07F0E4CF06F0E4CF05F0BC
:100E9000E4CF04F0E4CF03F0E4CF02F0E4CF01F0BC
:100EA000E4CF00F0E4CFD9FF1200D9CFE5FFE1CFC6
:100EB000D9FF00C0E5FF01C0E5FF02C0E5FF03C0A8
:100EC000E5FF04C0E5FF05C0E5FF06C0E5FF07C07C
:100ED000E5FF08C0E5FF09C0E5FF0AC0E5FF0BC05C
:100EE000E5FF0CC0E5FF0DC0E5FF020EDBCF00F013
:100EF000030EDBCF01F0040EDBCF02F0050EDBCFDB
:100F000003F0060EDBCF04F0070EDBCF05F0080E72
:100F1000DBCF06F0090EDBCF07F0086A096A0A6A20
:100F20000B6A200E0C6E0350800BE8440D6E0050CF
:100F300000260136023603360850082609360A36DE
:100F40000B360D50D8A4088007500B5C08E1065002
:100F50000A5C05E10550095C02E10450085C09E304
:100F60000450085E0550095A06500A5A07500B5A99
:100F700000800C040D6E0DC00CF00D50D4E103C0C8
:100F8000E9FF02C0F4FF01C0F3FF0050E4CF0DF011
:100F9000E4CF0CF0E4CF0BF0E4CF0AF0E4CF09F09B
:100FA000E4CF08F0E4CF07F0E4CF06F0E4CF05F09B
:100FB000E4CF04F0E4CF03F0E4CF02F0E4CF01F09B
:100FC000E4CF00F0E4CFD9FF120000C0E5FF01C07C
:100FD000E5FF03C0E5FF04C0E5FF05C0E5FF06C06F
:100FE000E5FF07C0E5FF08C0E5FF09C0E5FF0AC04F
:100FF000E5FF0BC0E5FF2ECF00F02FCF01F00F0172
:101000002E3F01D02F2B0050E56E6AEC14F0E65213
:10101000076E046A056A066A2ECF00F02FCF01F032
:101020000F012E3F01D02F2B0050E56E6AEC14F01B
:10103000E6520B6A0A6E086A0850041205120A503A
:1010400006120B5007122ECF00F02FCF01F00F0128
:101050002E3F01D02F2B0050E56E6AEC14F0E652C3
:10106000036E006A03C001F0E86A03BEFF0E086E5B
:10107000096E005004120150051208500612095062
:1010800007122ECF00F02FCF01F00F012E3F01D01D
:101090002F2B0050E56E6AEC14F0E652016A041240
:1010A000015005120612071207C0E9FF06C0F4FF3F
:1010B00005C0F3FF0450E4CF0BF0E4CF0AF0E4CF17
:1010C00009F0E4CF08F0E4CF07F0E4CF06F0E4CF76
:1010D00005F0E4CF04F0E4CF03F0E4CF01F0E4CF77
:1010E00000F0120000C0E5FF01C0E5FF02C0E5FF0F
:1010F00003C0E5FF0301C2510301C11901E163D03F
:10110000C2C300F0002A009E016A600E0026000E95
:10111000012200C0E9FF01C0EAFFEFCFCCF31F0EB0
:101120000301CC17C2C3CBF3CC510301CB27CB5166
:10113000006E020E0024CB6FCB9FB3EC11F0006E5B
:10114000005003E1006A002A01D0006AB3EC11F0FC
:101150000301CC6FCCC301F0800E0116CCC302F0AA
:101160001F0E021602C003F002C0CCF3035003E1CD
:10117000C1C3C2F33BD000501EE0015022E0B3ECEB
:1011800011F0006E0301CC51026E0204CC6F0050CE
:10119000420A17E000504E0A03E1BAEC0EF011D0FB
:1011A0000050460A03E1ACEC14F00BD00050490AA1
:1011B00008E1FF0006D0C2C3CDF30150D8B404EC5F
:1011C00012F0CBC3C2F30F0125510F01261906E01F
:1011D0000301C35103E18BEC09F008D094B006D0B1
:1011E0000301C35103E1ACB278EC14F0E4CF03F097
:1011F000E4CF02F0E4CF01F0E4CF00F01200D9CF49
:10120000E5FFE1CFD9FF00C0E5FF01C0E5FF02C067
:10121000E5FF03C0E5FF04C0E5FF05C0E5FF06C02C
:10122000E5FF07C0E5FF020EDBCF00F0030EDBCFCA
:1012300001F0040EDBCF02F0050EDBCF03F002C09D
:1012400006F00650046E800A33E100C0E9FF01C0D9
:10125000F3FF025015EC13F0056EF3CF06F0F4CF58
:1012600007F003C0E5FF05C0E9FF06C0F3FF075024
:10127000B7EC14F000C0E9FF01C0F3FF025015EC19
:1012800013F0056EF3CF06F0F4CF07F0052A02E362
:10129000064A072A05C0E5FF06C0F4FF07C0F6FFAF
:1012A00000C0E9FF01C0F3FF02505BEC14F020D056
:1012B00004C000F000AA1CD0007A0050046E04E1C3
:1012C0000350F4EC14F014D00450010A04E103506C
:1012D00002EC00F00DD004500F0A04E1035000ECC2
:1012E00011F006D004500E0A03E1035004EC15F08F
:1012F000E4CF07F0E4CF06F0E4CF05F0E4CF04F04C
:10130000E4CF03F0E4CF02F0E4CF01F0E4CF00F04B
:10131000E4CFD9FF120000C0E5FF01C0E5FF02C025
:10132000E5FF03C0E5FFACA277D0BBEC12F0006E86
:10133000005005E10F01266B0F01256B6DD026CF04
:1013400001F000500126BBEC12F0026E00060250C4
:10135000230A1FE1010E005CD8A05CD0BBEC12F0A8
:10136000036E690A03E1CFEC10F054D00350720A07
:1013700003E178EC14F04ED00350730A01E04AD038
:101380009480AB869D8A9D98AE50AE50AB98AB884A
:1013900041D00250430A05E00250420A01E03AD02F
:1013A00001D0008E0301C56B00C0C6F300500401DC
:1013B000006F0301C52B0F012651011814E0BBEC8F
:1013C00012F0006E0301C627000E0301C525026E50
:1013D000036A040E032202C0E9FF03C0EAFF00C053
:1013E000EFFFC52BE8D7000E0301C525006E026A8A
:1013F000040E02220301C61D036E032A00C0E9FF8A
:1014000002C0EAFF03C0EFFF0301C52BC5C3C3F34E
:101410000F01346B01C026FFE4CF03F0E4CF02F0EC
:10142000E4CF01F0E4CF00F01200D9CFE5FFE1CF27
:10143000D9FF00C0E5FF01C0E5FF02C0E5FF03C022
:10144000E5FF04C0E5FF05C0E5FF06C0E5FF020EAD
:10145000DBCF00F0030EDBCF01F0040EDBCF02F098
:10146000050EDBCF03F003C004F0056A0350D8B4C7
:1014700053D000C0E9FF01C0F3FF02504AEC14F062
:10148000066E430A03E1010E056E038E0406002A70
:1014900002E3014A022A9D9AAB9894909D989EA8D7
:1014A000FED7AC80AD6A00009EA8FED7AC9003C00A
:1014B000ADFF00009EA8FED7055005E0420EAD6EC0
:1014C0000324056E05D0620EAD6E620E0324056E18
:1014D00004C003F0035015E000009EA8FED700C032
:1014E000E9FF01C0F3FF02504AEC14F0046E04C09F
:1014F000ADFF045005260306002A02E3014A022A32
:10150000E9D700009EA8FED7051CAD6EAD2A0000ED
:101510009EA8FED778EC14F0E4CF06F0E4CF05F0F7
:10152000E4CF04F0E4CF03F0E4CF02F0E4CF01F025
:10153000E4CF00F0E4CFD9FF1200D9CFE5FFE1CF2F
:10154000D9FF00C0E5FF01C0E5FF02C0E5FF03C011
:10155000E5FF04C0E5FF05C0E5FF06C0E5FF07C0E5
:10156000E5FF020EDBCF00F0030EDBCF01F0040E2F
:10157000DBCF02F0050EDBCF03F026CF27FF0F01F4
:1015800025510F01275F2751046E0404276F03C004
:1015900004F0056A030E0426D8B0052A27CF06F00A
:1015A000076A0750800FF36E0550800FF35C02E16D
:1015B0000450065C02E2E8682ED0020E035C02E2F0
:1015C000E86A29D003060350E56EB8EC0FF0E65246
:1015D000046A0350045C14E204500024056EE86AB7
:1015E0000120066EE86A022005C0E9FF06C0F3FF8D
:1015F0004AEC14F0042AE56EB8EC0FF0E652E9D795
:1016000026CF27FF0F0125510F01275F2751006EBD
:101610000004276FE86AE4CF07F0E4CF06F0E4CFD8
:1016200005F0E4CF04F0E4CF03F0E4CF02F0E4CF20
:1016300001F0E4CF00F0E4CFD9FF1200D9CFE5FFED
:10164000E1CFD9FF00C0E5FF01C0E5FF02C0E5FF23
:1016500003C0E5FF04C0E5FF05C0E5FF06C0E5FFE8
:10166000020EDBCF00F0030EDBCF01F0040EDBCF68
:1016700002F0050EDBCF03F0D88001AED890046AEB
:101680000436045007E0011C066E001C056E054A76
:10169000062A04D000C005F001C006F0D88003AED1
:1016A000D89007E3031C016E021C006E004A012A59
:1016B00004D002C000F003C001F00150E56E0050FC
:1016C000E56E0650E56E0550E56E1FEC0DF0006E00
:1016D000F3CF01F0040EE12604500AE0011C036E72
:1016E000001C026E024A032A03C0F3FF025003D01B
:1016F00001C0F3FF0050E4CF06F0E4CF05F0E4CFE3
:1017000004F0E4CF03F0E4CF02F0E4CF01F0E4CF43
:1017100000F0E4CFD9FF1200D9CFE5FFE1CFD9FF28
:1017200000C0E5FF01C0E5FF02C0E5FF03C0E5FF23
:1017300004C0E5FF05C0E5FF020EDBCF00F0030E9D
:10174000DBCF01F0040EDBCF02F0050EDBCF03F0A0
:101750002ECF04F02FCF05F00F012E3F01D02F2BFD
:101760000350E56E0450E56E89EC11F0E652E65246
:101770002ECF04F02FCF05F00F012E3F01D02F2BDD
:101780000250056EE56E0450E56E89EC11F0E652EC
:10179000E6522ECF04F02FCF05F00F012E3F01D0DF
:1017A0002F2B0150E56E0450E56E89EC11F0E652E6
:1017B000E6522ECF04F02FCF05F00F012E3F01D0BF
:1017C0002F2B0050E56E0450E56E89EC11F0E652C7
:1017D000E652E4CF05F0E4CF04F0E4CF03F0E4CF29
:1017E00002F0E4CF01F0E4CF00F0E4CFD9FF120023
:1017F000D9CFE5FFE1CFD9FF00C0E5FF01C0E5FF8C
:1018000002C0E5FF03C0E5FF04C0E5FF05C0E5FF3A
:1018100006C0E5FF020EDBCF00F0030EDBCF01F0C8
:10182000040EDBCF02F00401885119E1E5EC07F06A
:10183000036EF3CF04F0F4CF05F0E9CF06F003C058
:10184000E5FF04C0F4FF05C0F6FF06C0F7FF00C0C7
:10185000E9FF01C0F3FF025039EC14F01ED004017F
:101860008851010A1AE100C0E9FF01C0F3FF0250EC
:101870009BEC12F0006EF3CF01F0F4CF02F0E9CF51
:1018800003F00350E56E0250E56E0150E56E005026
:10189000E56E8CEC0BF0040EE126E4CF06F0E4CF0D
:1018A00005F0E4CF04F0E4CF03F0E4CF02F0E4CF9E
:1018B00001F0E4CF00F0E4CFD9FF1200D9CFE5FF6B
:1018C000E1CFD9FF00C0E5FF01C0E5FF02C0E5FFA1
:1018D00003C0E5FF04C0E5FF05C0E5FF06C0E5FF66
:1018E000020EDBCF00F0030EDBCF01F0040EDBCFE6
:1018F00002F0050EDBCF03F0060EDBCF04F0070E7F
:10190000DBCF05F0080EDBCF06F0D88003AED89011
:1019100015E306500A0A12E104C0E9FF05C0EAFF18
:101920002D0EEF6E044A052A031E021E011E006CD6
:1019300005E1012A03E1022AD8B4032A0650E56E24
:101940000550E56E0450E56E0350E56E0250E56EFD
:101950000150E56E0050E56E2FEC05F0070EE12614
:10196000E4CF06F0E4CF05F0E4CF04F0E4CF03F0D9
:10197000E4CF02F0E4CF01F0E4CF00F0E4CFD9FFF0
:10198000120000C0E5FF01C0E5FF02C0E5FF03C093
:10199000E5FF72EC08F00BEC06F05FEC11F0006E66
:1019A000F3CF01F0F4CF02F0E9CF03F0040130519E
:1019B000005E3151015A3251025A3351035A039E8B
:1019C0003F0E035C08E1FF0E025C05E1FF0E015CC7
:1019D00002E1FF0E005C2AE25FEC11F0F3CF01F0B0
:1019E000F4CF02F0E9CF03F0100F0401306F270E9F
:1019F0000120316F000E0220326F000E0320336F82
:101A000090C400F091C401F00401903F01D0912BEB
:101A10000050190A02E1015001E008D00401906B66
:101A2000916B82A202D08B9201D08B82E4CF03F023
:101A3000E4CF02F0E4CF01F0E4CF00F01200D9CF00
:101A4000E5FFE1CFD9FF00C0E5FF01C0E5FF02C01F
:101A5000E5FF03C0E5FF04C0E5FF05C0E5FF06C0E4
:101A6000E5FF020EDBCF00F0030EDBCF01F0040E2A
:101A7000DBCF02F0050EDBCF03F0046A056A0350EA
:101A8000800BE844066E065011E102500226033630
:101A90000350015C02E10250005C04E2D890033282
:101AA000023204D0052A05C004F0E9D70350015CD6
:101AB00002E10250005C04E30250005E0350015A50
:101AC000D8900332023204C005F004060550EEE15E
:101AD00001C0F3FF0050E4CF06F0E4CF05F0E4CFFF
:101AE00004F0E4CF03F0E4CF02F0E4CF01F0E4CF60
:101AF00000F0E4CFD9FF120000C0E5FF01C0E5FF10
:101B000002C0E5FF03C0E5FFC2C300F0016ACDC318
:101B100002F0036A0250005E0350015AE56A800E2B
:101B2000E56E0150E56E0050E56E1EEC0BF0006EA8
:101B3000040EE1260006CDC301F0430E00EC11F0C7
:101B4000200E00EC11F0005020E0600E0124026E27
:101B5000036A000E032202C0E9FF03C0EAFFEFCFD1
:101B600002F0E56A0250E56E000EE56E290EE56EA4
:101B7000080EE56EFCEC0EF0050EE126012A015080
:101B8000800A01E1016A0006DED7E4CF03F0E4CF6A
:101B900002F0E4CF01F0E4CF00F01200D8CFE5FF6F
:101BA000E0CFE5FFE56EF3CFE5FFF4CFE5FFE9CF4A
:101BB000E5FFEACFE5FFFACFE5FFFBCFE5FF00C089
:101BC000E5FF01C0E5FF0F0123510401366F0F014E
:101BD00024510401376FD650346FD750356FF2A4BB
:101BE00017D023CF00F024CF01F00050010F0F01D8
:101BF000236F000E0120246FF29423510401366FED
:101C00000F0124510401376FD650346FD750356F10
:101C1000E4CF01F0E4CF00F0E4CFFBFFE4CFFAFF24
:101C2000E4CFEAFFE4CFE9FFE4CFF4FFE4CFF3FF32
:101C3000E450E4CFE0FFE4CFD8FF1000D9CFE5FFB8
:101C4000E1CFD9FF00C0E5FF01C0E5FF02C0E5FF1D
:101C500003C0E5FF04C0E5FF020EDBCF00F0030E7A
:101C6000DBCF01F0040EDBCF02F00401885111E15B
:101C700069EC10F0036EF3CF04F003C0E5FF04C07D
:101C8000F4FF00C0E9FF01C0F3FF025094EC14F030
:101C900016D004018851010A12E100C0E9FF01C019
:101CA000F3FF0250D4EC13F0006EF3CF01F00150BB
:101CB000E56E0050E56E7BEC0FF0E652E652E4CFA5
:101CC00004F0E4CF03F0E4CF02F0E4CF01F0E4CF7E
:101CD00000F0E4CFD9FF1200B40EF66E290EF76EB5
:101CE000000EF86E0900F550056E0900F550066EFD
:101CF00004E1056702D0B9EF0EF00900F550006E5F
:101D00000900F550016E0900F550026E0900090046
:101D1000F550E96E0900F550EA6E09000900090066
:101D2000F550036E0900F550046E09000900F6CF66
:101D300007F0F7CF08F0F8CF09F000C0F6FF01C0B8
:101D4000F7FF02C0F8FF035002E1045007E009006A
:101D5000F550EE6E0306F8E20406F9D707C0F6FF69
:101D600008C0F7FF09C0F8FF050601E2060678EF94
:101D70000EF0120000C0E5FF01C0E5FF02C0E5FF64
:101D8000B3EC11F0006EB3EC11F0016ED00E002632
:101D90000A0E005C05E30050026EF90E0224006E8C
:101DA000D00E01260A0E015C05E30150026EF90E09
:101DB0000224016E080E005C03E2100E015CD8B034
:101DC00014D00038F00B0124006E016A2FEC10F0E3
:101DD000026E025002E0010E016E0150010A05E0A0
:101DE0000050E56E4AEC13F0E652E4CF02F0E4CF87
:101DF00001F0E4CF00F01200D9CFE5FFE1CFD9FF29
:101E000000C0E5FF01C0E5FF02C0E5FF020ED924D6
:101E1000006E000EDA20016E800E026E030E0026A8
:101E2000000E012202220250E56E0150E56E0050C4
:101E3000E56E040EDBCFE5FF030EDBCFE5FF020E00
:101E4000DBCFE5FF04018751E56E8651E56E8551D4
:101E5000E56E0EEC00F0006EF3CF01F0090EE12606
:101E600001C0F3FF0050E4CF02F0E4CF01F0E4CF73
:101E700000F0E4CFD9FF1200D9CFE5FFE1CFD9FFC1
:101E800000C0E5FF01C0E5FF02C0E5FF03C0E5FFBC
:101E9000020EDBCF00F0030EDBCF01F0040EDBCF30
:101EA00002F0040188510DE1A8EC13F0036E03C0A9
:101EB000E5FF00C0E9FF01C0F3FF0250B7EC14F0EA
:101EC0000FD004018851010A0BE100C0E9FF01C0F5
:101ED000F3FF02504AEC14F0E56E50EC12F0E652BB
:101EE000E4CF03F0E4CF02F0E4CF01F0E4CF00F060
:101EF000E4CFD9FF1200D9CFE5FFE1CFD9FF00C071
:101F0000E5FF01C0E5FF02C0E5FF03C0E5FF020EEB
:101F1000DBCF00F0030EDBCF01F02ECF02F02FCF8E
:101F200003F00F012E3F01D02F2B0150E56E025020
:101F3000E56E89EC11F0E652E6522ECF02F02FCF7B
:101F400003F00F012E3F01D02F2B0050E56E025001
:101F5000E56E89EC11F0E652E652E4CF03F0E4CFEF
:101F600002F0E4CF01F0E4CF00F0E4CFD9FF12009B
:101F7000D9CFE5FFE1CFD9FF00C0E5FF01C0E5FF04
:101F800002C0E5FF03C0E5FF04C0E5FF020EDBCFA2
:101F900000F025CF01F0026A014A022A26CF03F0A1
:101FA000046A0150031803E10250041801E001D053
:101FB0000ED0000E0F012525016E026A010E0222CD
:101FC00001C0E9FF02C0EAFF00C0EFFF252BE4CF0C
:101FD00004F0E4CF03F0E4CF02F0E4CF01F0E4CF6B
:101FE00000F0E4CFD9FF1200D9CFE5FFE1CFD9FF50
:101FF00000C0E5FF01C0E5FF02C0E5FF03C0E5FF4B
:10200000020EDBCF00F0016ACDC302F0036A02507A
:10201000002603500122E56A800EE56E0150E56E50
:102020000050E56E1EEC0BF0006EF3CF01F0040ED5
:10203000E126600E0026000E012200C0E9FF01C06B
:10204000EAFFEFCF00F00050E4CF03F0E4CF02F05E
:10205000E4CF01F0E4CF00F0E4CFD9FF120000C0DC
:10206000E5FF01C0E5FF02C0E5FF010E006EB3EC25
:1020700011F0016E01C002F0015023E00050E56E46
:102080006AEC14F0016EE652015010E10A0E005C99
:102090000BE20A0E006EE56E6AEC14F0016EE65279
:1020A000015004E1E8680ED0E8680CD00150021835
:1020B00002E0E86807D0002A1B0E005CD8E3E8685D
:1020C00001D0E86AE4CF02F0E4CF01F0E4CF00F001
:1020D000120000C0E5FF01C0E5FF02C0E5FF03C03C
:1020E000E5FF2ECF00F02FCF01F00F012E3F01D0E2
:1020F0002F2B0050E56E6AEC14F0E652036E026A74
:102100002ECF00F02FCF01F00F012E3F01D02F2B4B
:102110000050E56E6AEC14F0E652016A02120150BA
:10212000031203C0F3FF0250E4CF03F0E4CF02F048
:10213000E4CF01F0E4CF00F0120000C0E5FF01C0E1
:10214000E5FF02C0E5FF03C0E5FF006A016A000E7B
:102150000024026E030E0120036E02C0E9FF03C0DB
:10216000EAFFEF6A004A012A0150800F800F02E166
:10217000C00E005CECE38A8C939C7086728A728439
:10218000728C7280718E0F01326B336BE4CF03F06F
:10219000E4CF02F0E4CF01F0E4CF00F012000F0131
:1021A000256B0F01266B0F01276994808B9094801B
:1021B000B06A3F0EAF6EB886AC8AAC84AC8CAC9083
:1021C000AB8CAB8E0301C46B0F01356B0301C16B8C
:1021D0000301C26B0301C36B000EE56A6AEC14F0E5
:1021E0000F01296FE6529F989F9A010E0F01286FE9
:1021F0000401856B866B2F0E876F78EC14F012004C
:1022000000C0E5FF01C0E5FF02C0E5FF006E000E63
:102210000F012A25016E026A0F0E022201C0E9FF9A
:1022200002C0EAFF00C0EFFF220E2A5DD8A02A2BD1
:1022300000500A0A0EE10F012A51E56E800EE56E8C
:102240000F0EE56E000EE56E9DEC0AF0040EE12621
:102250002A6BE4CF02F0E4CF01F0E4CF00F01200EB
:10226000D9CFE5FFE1CFD9FF00C0E5FF01C0E5FF11
:1022700002C0E5FF020EDBCF00F0030EDBCF01F062
:10228000040EDBCF02F00050011010E0000E015CE4
:1022900002E1C00E005C0AE2000E0026030E0122DD
:1022A00000C0E9FF01C0EAFF02C0EFFFE4CF02F087
:1022B000E4CF01F0E4CF00F0E4CFD9FF12000F012A
:1022C00023510401836F0F0124510401846FD65000
:1022D000816FD750826F83510F01231905E10401EB
:1022E00084510F0124190CE00F0123510401836F65
:1022F0000F0124510401846FD650816FD750826F33
:1023000084C4E9FF83C4F4FF82C4F3FF0401815154
:102310001200D9CFE5FFE1CFD9FF00C0E5FF01C032
:10232000E5FF020EDBCF00F0030EDBCF01F0F29EE3
:10233000F29C01C0A8FF00C0A9FFA69EA69CA6848F
:10234000550EA76EAA0EA76EA682F28EF28CA694E8
:10235000A6A202D00000FCD7E4CF01F0E4CF00F049
:10236000E4CFD9FF120000C0E5FF01C0E5FF030183
:10237000C2510301CB1905E00301C2510301C11988
:1023800002E1E86A15D0C2C300F00301C22B016A62
:10239000600E0026000E012200C0E9FF01C0EAFF26
:1023A000EFCF00F0C251800A02E10301C26B00507E
:1023B000E4CF01F0E4CF00F0120000C0E5FFF8EC3C
:1023C00014F00401896B806B8983006A89B3002A49
:1023D0000050010BE844F46E8051FD0BF410806F47
:1023E000D58ED59CD59AD588D596D594D582D580CD
:1023F000F28AF184D08EF28EF28CBA80FF0EBB6826
:10240000BA84E4CF00F0120000C0E5FF01C0E5FF90
:1024100003C0E5FFB3EC11F01E0A15E1B3EC11F0B7
:10242000006A016EB3EC11F0036A0026035001222A
:10243000B3EC11F0E56E0150E56E0050E56E30EC46
:1024400011F0030EE126E4CF03F0E4CF01F0E4CF76
:1024500000F0120001C0E5FF02C0E5FF03C0E5FF88
:10246000E7EC14F094929DEC10F05FEC11F0F3CFD8
:1024700001F0F4CF02F0E9CF03F0100F0401306F48
:10248000270E0120316F000E0220326F000E032054
:10249000336FE4CF03F0E4CF02F0E4CF01F0120099
:1024A000D9CFE5FFE1CFD9FF00C0E5FF01C0E5FFCF
:1024B00002C0E5FF020EDBCF00F02ECF01F02FCFE0
:1024C00002F00F012E3F01D02F2B0050E56E01507E
:1024D000E56E89EC11F0E652E652E4CF02F0E4CF6B
:1024E00001F0E4CF00F0E4CFD9FF1200D8CFE5FF30
:1024F000E0CFE5FFE56EF3CFE5FFF4CFE5FFE9CFF1
:10250000E5FFEACFE5FFFACFE5FFFBCFE5FF0EECF5
:1025100004F0E4CFFBFFE4CFFAFFE4CFEAFFE4CF1F
:10252000E9FFE4CFF4FFE4CFF3FFE450E4CFE0FFB2
:10253000E4CFD8FF1000E8AE0AD0F3CFEAFFEE50A8
:10254000EECFF3FFEECFF4FFEECFE9FF1200E8BCD1
:102550000BEF15F0E9CFF6FFF3CFF7FFF86E0900A8
:10256000F5500900F5CFF3FF0900F5CFF4FF09009E
:10257000F5CFE9FF120000C0E5FF01C0E5FF0F0144
:1025800025510F01261902E1E86A0FD0000E0F0154
:102590002625006E016A010E012200C0E9FF01C07C
:1025A000EAFFEFCF00F0262B0050E4CF01F0E4CF9C
:1025B00000F01200F2CFEAFFF29EA69EA69CA6842F
:1025C000E9CFA9FFF3CFAAFFE4CFA8FFC2EC14F034
:1025D000F4CFA8FFC2EC14F0F6CFA8FFC2EC14F0C1
:1025E000F7CFA8FFC2EC14F0A694EABEF28E120058
:1025F000F2CFF6FFF29EA69EA69CE9CFA9FFF3CFED
:10260000AAFFA680A850A94AAA2AA680A8CFF3FFAD
:10261000A94AAA2AA680A8CFF4FFA94AAA2AA68076
:10262000A8CFEAFFF6BEF28E1200E8AE08D0F3CFD4
:10263000EAFFEE50EECFF3FFEECFF4FF1200E8BC5E
:1026400013EF15F0E9CFF6FFF3CFF7FFF86E0900AF
:10265000F5500900F5CFF3FF0900F5CFF4FF1200A4
:10266000F2CFEAFFF29EA69EA69CA684E9CFA9FF20
:10267000F3CFAAFFE4CFA8FFC2EC14F0F4CFA8FF79
:10268000C2EC14F0F6CFA8FFC2EC14F0A694EABE98
:10269000F28E1200D9CFE5FFE1CFD9FF00C0E5FFF0
:1026A000020EDBCF00F000C029FF0050E56E000EE7
:1026B000E56A89EC11F0E652E652E4CF00F0E4CF8F
:1026C000D9FF1200F2CFF6FFF29EA69EA69CE9CF9C
:1026D000A9FFF3CFAAFFA680A850A94AAA2AA680DC
:1026E000A8CFF3FFA94AAA2AA680A8CFF4FFF6BE76
:1026F000F28E120000C0E5FF01C0E5FF600E03018D
:10270000C225006E016A000E012200C0E9FF01C06F
:10271000EAFFEFCF00F00050E4CF01F0E4CF00F08B
:102720001200D9CFE5FFE1CFD9FF00C0E5FF020ECF
:10273000DBCF00F0610E005C05E37B0E005C02E283
:10274000010E01D0E86AE4CF00F0E4CFD9FF120017
:1027500000C0E5FF01C0E5FF2ECF00F02FCF01F054
:102760000F012E3F01D02F2B0050E56E6AEC14F0C4
:10277000E652E4CF01F0E4CF00F01200D9CFE5FF3C
:10278000E1CFD9FF00C0E5FF020EDBCF00F000C0B3
:1027900028FF005004E178EC14F09D9A9D98E4CF56
:1027A00000F0E4CFD9FF1200E8AE06D0F3CFEAFF85
:1027B000EE50EECFF3FF1200E8BC09EF15F0E9CFC1
:1027C000F6FFF3CFF7FFF86E0900F5500900F5CFDB
:1027D000F3FF1200F2CFEAFFF29EA69EA69CA6840B
:1027E000E9CFA9FFF3CFAAFFE4CFA8FFC2EC14F012
:1027F000F4CFA8FFC2EC14F0A694EABEF28E120049
:1028000012EEFFF022EEFFF0F86AA68EA69CE968B1
:102810000E0EEA6E0068000EED6A0050FDE16CECF1
:102820000EF0E1EC14F0FFD7F2CFF6FFF29EA69E79
:10283000A69CE9CFA9FFF3CFAAFFA680A850A94A7A
:10284000AA2AA680A8CFF3FFF6BEF28E1200F2CF1E
:10285000EAFFF29EA69EA69CA684E9CFA9FFF3CF2D
:10286000AAFFE4CFA8FFC2EC14F0A694EABEF28E51
:102870001200E8AE0BD0F3CFEAFFE4CFEEFFF4CFC7
:10288000EEFFF6CFEEFFF7CFEEFF1200E8BC0DEF44
:1028900015F01200E8AE04D0F3CFEAFFEE501200BC
:1028A000E8BC07EF15F0E9CFF6FFF3CFF7FFF86EBE
:1028B0000900F5501200E8AE09D0F3CFEAFFE4CFEB
:1028C000EEFFF4CFEEFFF6CFEEFF1200E8BC15EFFF
:1028D00015F01200D9CFE5FFE1CFD9FF020EDBCF13
:1028E000A9FFA69CA69EA680A850E4CFD9FF1200FF
:1028F000ACA2FED79480AE500000AE50AB98AB882F
:10290000AB869D8A9D98120025642000F2CFF6FFC9
:10291000F29EA69EA69CE9CFA9FFF3CFAAFFA680B0
:10292000A850F6BEF28E1200E8AE07D0F3CFEAFF51
:10293000E4CFEEFFF4CFEEFF1200E8BC11EF15F08C
:102940001200700ED36E9B8CFF0E92689368946891
:102950009668626AF19E120000C0E5FF2FEC10F04D
:10296000006E005001E1FF00E4CF00F01200E8AE7D
:1029700005D0F3CFEAFFE4CFEEFF1200E8BC0FEF83
:1029800015F01200550EA76EAA0EA76EA682A6B26B
:10299000FED7A94AAA2A010E0401886F1C0E0F0156
:1029A0002E6F2F6B12000401886B1C0E0F012E6F0F
:1029B0002F6B120001000C000000230F00000B0021
:1029C00000002AEC12F0C1EC0CF0FDD71200DDEC97
:1029D00011F0CFEC10F01200766AA50E756E1200A1
:1029E000766A3F0E756E1200ACA2FED7AD6E120075
:1029F000A1EC14F012000301C25112000301CC51EA
:102A000012000F0128511200E8CF7FFF120086EF5D
:102A100014F014EF14F0F8EF12F0DAEF12F027EFE1
:0E2A200014F0EAEF13F062EF13F030EF13F052
:020000040030CA
:010006008574
:00000001FF
